{
  "_format": "hh-sol-artifact-1",
  "contractName": "eRWF",
  "sourceName": "contracts/eRWF.sol",
  "abi": [
    {
      "inputs": [
        {
          "internalType": "address",
          "name": "operator",
          "type": "address"
        }
      ],
      "stateMutability": "nonpayable",
      "type": "constructor"
    },
    {
      "inputs": [],
      "name": "AccessControlBadConfirmation",
      "type": "error"
    },
    {
      "inputs": [
        {
          "internalType": "address",
          "name": "account",
          "type": "address"
        },
        {
          "internalType": "bytes32",
          "name": "neededRole",
          "type": "bytes32"
        }
      ],
      "name": "AccessControlUnauthorizedAccount",
      "type": "error"
    },
    {
      "inputs": [
        {
          "internalType": "address",
          "name": "spender",
          "type": "address"
        },
        {
          "internalType": "uint256",
          "name": "allowance",
          "type": "uint256"
        },
        {
          "internalType": "uint256",
          "name": "needed",
          "type": "uint256"
        }
      ],
      "name": "ERC20InsufficientAllowance",
      "type": "error"
    },
    {
      "inputs": [
        {
          "internalType": "address",
          "name": "sender",
          "type": "address"
        },
        {
          "internalType": "uint256",
          "name": "balance",
          "type": "uint256"
        },
        {
          "internalType": "uint256",
          "name": "needed",
          "type": "uint256"
        }
      ],
      "name": "ERC20InsufficientBalance",
      "type": "error"
    },
    {
      "inputs": [
        {
          "internalType": "address",
          "name": "approver",
          "type": "address"
        }
      ],
      "name": "ERC20InvalidApprover",
      "type": "error"
    },
    {
      "inputs": [
        {
          "internalType": "address",
          "name": "receiver",
          "type": "address"
        }
      ],
      "name": "ERC20InvalidReceiver",
      "type": "error"
    },
    {
      "inputs": [
        {
          "internalType": "address",
          "name": "sender",
          "type": "address"
        }
      ],
      "name": "ERC20InvalidSender",
      "type": "error"
    },
    {
      "inputs": [
        {
          "internalType": "address",
          "name": "spender",
          "type": "address"
        }
      ],
      "name": "ERC20InvalidSpender",
      "type": "error"
    },
    {
      "anonymous": false,
      "inputs": [
        {
          "indexed": true,
          "internalType": "address",
          "name": "owner",
          "type": "address"
        },
        {
          "indexed": true,
          "internalType": "address",
          "name": "spender",
          "type": "address"
        },
        {
          "indexed": false,
          "internalType": "uint256",
          "name": "value",
          "type": "uint256"
        }
      ],
      "name": "Approval",
      "type": "event"
    },
    {
      "anonymous": false,
      "inputs": [
        {
          "indexed": true,
          "internalType": "bytes32",
          "name": "role",
          "type": "bytes32"
        },
        {
          "indexed": true,
          "internalType": "bytes32",
          "name": "previousAdminRole",
          "type": "bytes32"
        },
        {
          "indexed": true,
          "internalType": "bytes32",
          "name": "newAdminRole",
          "type": "bytes32"
        }
      ],
      "name": "RoleAdminChanged",
      "type": "event"
    },
    {
      "anonymous": false,
      "inputs": [
        {
          "indexed": true,
          "internalType": "bytes32",
          "name": "role",
          "type": "bytes32"
        },
        {
          "indexed": true,
          "internalType": "address",
          "name": "account",
          "type": "address"
        },
        {
          "indexed": true,
          "internalType": "address",
          "name": "sender",
          "type": "address"
        }
      ],
      "name": "RoleGranted",
      "type": "event"
    },
    {
      "anonymous": false,
      "inputs": [
        {
          "indexed": true,
          "internalType": "bytes32",
          "name": "role",
          "type": "bytes32"
        },
        {
          "indexed": true,
          "internalType": "address",
          "name": "account",
          "type": "address"
        },
        {
          "indexed": true,
          "internalType": "address",
          "name": "sender",
          "type": "address"
        }
      ],
      "name": "RoleRevoked",
      "type": "event"
    },
    {
      "anonymous": false,
      "inputs": [
        {
          "indexed": true,
          "internalType": "address",
          "name": "from",
          "type": "address"
        },
        {
          "indexed": true,
          "internalType": "address",
          "name": "to",
          "type": "address"
        },
        {
          "indexed": false,
          "internalType": "uint256",
          "name": "value",
          "type": "uint256"
        }
      ],
      "name": "Transfer",
      "type": "event"
    },
    {
      "inputs": [],
      "name": "DEFAULT_ADMIN_ROLE",
      "outputs": [
        {
          "internalType": "bytes32",
          "name": "",
          "type": "bytes32"
        }
      ],
      "stateMutability": "view",
      "type": "function"
    },
    {
      "inputs": [],
      "name": "OPERATOR_ROLE",
      "outputs": [
        {
          "internalType": "bytes32",
          "name": "",
          "type": "bytes32"
        }
      ],
      "stateMutability": "view",
      "type": "function"
    },
    {
      "inputs": [
        {
          "internalType": "address",
          "name": "owner",
          "type": "address"
        },
        {
          "internalType": "address",
          "name": "spender",
          "type": "address"
        }
      ],
      "name": "allowance",
      "outputs": [
        {
          "internalType": "uint256",
          "name": "",
          "type": "uint256"
        }
      ],
      "stateMutability": "view",
      "type": "function"
    },
    {
      "inputs": [
        {
          "internalType": "address",
          "name": "spender",
          "type": "address"
        },
        {
          "internalType": "uint256",
          "name": "value",
          "type": "uint256"
        }
      ],
      "name": "approve",
      "outputs": [
        {
          "internalType": "bool",
          "name": "",
          "type": "bool"
        }
      ],
      "stateMutability": "nonpayable",
      "type": "function"
    },
    {
      "inputs": [
        {
          "internalType": "address",
          "name": "account",
          "type": "address"
        }
      ],
      "name": "balanceOf",
      "outputs": [
        {
          "internalType": "uint256",
          "name": "",
          "type": "uint256"
        }
      ],
      "stateMutability": "view",
      "type": "function"
    },
    {
      "inputs": [
        {
          "internalType": "address",
          "name": "from",
          "type": "address"
        },
        {
          "internalType": "uint256",
          "name": "amount",
          "type": "uint256"
        }
      ],
      "name": "burn",
      "outputs": [],
      "stateMutability": "nonpayable",
      "type": "function"
    },
    {
      "inputs": [],
      "name": "decimals",
      "outputs": [
        {
          "internalType": "uint8",
          "name": "",
          "type": "uint8"
        }
      ],
      "stateMutability": "view",
      "type": "function"
    },
    {
      "inputs": [
        {
          "internalType": "bytes32",
          "name": "role",
          "type": "bytes32"
        }
      ],
      "name": "getRoleAdmin",
      "outputs": [
        {
          "internalType": "bytes32",
          "name": "",
          "type": "bytes32"
        }
      ],
      "stateMutability": "view",
      "type": "function"
    },
    {
      "inputs": [
        {
          "internalType": "bytes32",
          "name": "role",
          "type": "bytes32"
        },
        {
          "internalType": "address",
          "name": "account",
          "type": "address"
        }
      ],
      "name": "grantRole",
      "outputs": [],
      "stateMutability": "nonpayable",
      "type": "function"
    },
    {
      "inputs": [
        {
          "internalType": "bytes32",
          "name": "role",
          "type": "bytes32"
        },
        {
          "internalType": "address",
          "name": "account",
          "type": "address"
        }
      ],
      "name": "hasRole",
      "outputs": [
        {
          "internalType": "bool",
          "name": "",
          "type": "bool"
        }
      ],
      "stateMutability": "view",
      "type": "function"
    },
    {
      "inputs": [
        {
          "internalType": "address",
          "name": "to",
          "type": "address"
        },
        {
          "internalType": "uint256",
          "name": "amount",
          "type": "uint256"
        }
      ],
      "name": "mint",
      "outputs": [],
      "stateMutability": "nonpayable",
      "type": "function"
    },
    {
      "inputs": [],
      "name": "name",
      "outputs": [
        {
          "internalType": "string",
          "name": "",
          "type": "string"
        }
      ],
      "stateMutability": "view",
      "type": "function"
    },
    {
      "inputs": [
        {
          "internalType": "bytes32",
          "name": "role",
          "type": "bytes32"
        },
        {
          "internalType": "address",
          "name": "callerConfirmation",
          "type": "address"
        }
      ],
      "name": "renounceRole",
      "outputs": [],
      "stateMutability": "nonpayable",
      "type": "function"
    },
    {
      "inputs": [
        {
          "internalType": "bytes32",
          "name": "role",
          "type": "bytes32"
        },
        {
          "internalType": "address",
          "name": "account",
          "type": "address"
        }
      ],
      "name": "revokeRole",
      "outputs": [],
      "stateMutability": "nonpayable",
      "type": "function"
    },
    {
      "inputs": [
        {
          "internalType": "bytes4",
          "name": "interfaceId",
          "type": "bytes4"
        }
      ],
      "name": "supportsInterface",
      "outputs": [
        {
          "internalType": "bool",
          "name": "",
          "type": "bool"
        }
      ],
      "stateMutability": "view",
      "type": "function"
    },
    {
      "inputs": [],
      "name": "symbol",
      "outputs": [
        {
          "internalType": "string",
          "name": "",
          "type": "string"
        }
      ],
      "stateMutability": "view",
      "type": "function"
    },
    {
      "inputs": [],
      "name": "totalSupply",
      "outputs": [
        {
          "internalType": "uint256",
          "name": "",
          "type": "uint256"
        }
      ],
      "stateMutability": "view",
      "type": "function"
    },
    {
      "inputs": [
        {
          "internalType": "address",
          "name": "to",
          "type": "address"
        },
        {
          "internalType": "uint256",
          "name": "amount",
          "type": "uint256"
        }
      ],
      "name": "transfer",
      "outputs": [
        {
          "internalType": "bool",
          "name": "",
          "type": "bool"
        }
      ],
      "stateMutability": "nonpayable",
      "type": "function"
    },
    {
      "inputs": [
        {
          "internalType": "address",
          "name": "from",
          "type": "address"
        },
        {
          "internalType": "address",
          "name": "to",
          "type": "address"
        },
        {
          "internalType": "uint256",
          "name": "amount",
          "type": "uint256"
        }
      ],
      "name": "transferFrom",
      "outputs": [
        {
          "internalType": "bool",
          "name": "",
          "type": "bool"
        }
      ],
      "stateMutability": "nonpayable",
      "type": "function"
    }
  ],
  "bytecode": "0x60806040523480156200001157600080fd5b50604051620010f5380380620010f58339810160408190526200003491620001fa565b6040518060400160405280601681526020017f53696d756c61746564205277616e6461204672616e63000000000000000000008152506040518060400160405280600481526020016332a92ba360e11b8152508160039081620000989190620002d1565b506004620000a78282620002d1565b5050506001600160a01b038116620001055760405162461bcd60e51b815260206004820152601860248201527f496e76616c6964206f70657261746f7220616464726573730000000000000000604482015260640160405180910390fd5b620001317f97667070c54ef182b0f5858b034beac1b6f3089aa2d3188bb1e8929f4fa9b9298262000147565b506200013f60008262000147565b50506200039d565b60008281526005602090815260408083206001600160a01b038516845290915281205460ff16620001f05760008381526005602090815260408083206001600160a01b03861684529091529020805460ff19166001179055620001a73390565b6001600160a01b0316826001600160a01b0316847f2f8788117e7eff1d82e926ec794901d17c78024a50270940304540a733656f0d60405160405180910390a4506001620001f4565b5060005b92915050565b6000602082840312156200020d57600080fd5b81516001600160a01b03811681146200022557600080fd5b9392505050565b634e487b7160e01b600052604160045260246000fd5b600181811c908216806200025757607f821691505b6020821081036200027857634e487b7160e01b600052602260045260246000fd5b50919050565b601f821115620002cc57600081815260208120601f850160051c81016020861015620002a75750805b601f850160051c820191505b81811015620002c857828155600101620002b3565b5050505b505050565b81516001600160401b03811115620002ed57620002ed6200022c565b6200030581620002fe845462000242565b846200027e565b602080601f8311600181146200033d5760008415620003245750858301515b600019600386901b1c1916600185901b178555620002c8565b600085815260208120601f198616915b828110156200036e578886015182559484019460019091019084016200034d565b50858210156200038d5787850151600019600388901b60f8161c191681555b5050505050600190811b01905550565b610d4880620003ad6000396000f3fe608060405234801561001057600080fd5b50600436106101215760003560e01c806340c10f19116100ad578063a217fddf11610071578063a217fddf1461025f578063a9059cbb14610267578063d547741f1461027a578063dd62ed3e1461028d578063f5b541a6146102c657600080fd5b806340c10f19146101f557806370a082311461020857806391d148541461023157806395d89b41146102445780639dc29fac1461024c57600080fd5b806323b872dd116100f457806323b872dd14610188578063248a9ca31461019b5780632f2ff15d146101be578063313ce567146101d357806336568abe146101e257600080fd5b806301ffc9a71461012657806306fdde031461014e578063095ea7b31461016357806318160ddd14610176575b600080fd5b610139610134366004610b2c565b6102ed565b60405190151581526020015b60405180910390f35b610156610324565b6040516101459190610b5d565b610139610171366004610bc7565b6103b6565b6002545b604051908152602001610145565b610139610196366004610bf1565b6103ce565b61017a6101a9366004610c2d565b60009081526005602052604090206001015490565b6101d16101cc366004610c46565b6103f2565b005b60405160128152602001610145565b6101d16101f0366004610c46565b61041d565b6101d1610203366004610bc7565b610455565b61017a610216366004610c72565b6001600160a01b031660009081526020819052604090205490565b61013961023f366004610c46565b61053f565b61015661056a565b6101d161025a366004610bc7565b610579565b61017a600081565b610139610275366004610bc7565b61065e565b6101d1610288366004610c46565b61066c565b61017a61029b366004610c8d565b6001600160a01b03918216600090815260016020908152604080832093909416825291909152205490565b61017a7f97667070c54ef182b0f5858b034beac1b6f3089aa2d3188bb1e8929f4fa9b92981565b60006001600160e01b03198216637965db0b60e01b148061031e57506301ffc9a760e01b6001600160e01b03198316145b92915050565b60606003805461033390610cb7565b80601f016020809104026020016040519081016040528092919081815260200182805461035f90610cb7565b80156103ac5780601f10610381576101008083540402835291602001916103ac565b820191906000526020600020905b81548152906001019060200180831161038f57829003601f168201915b5050505050905090565b6000336103c4818585610691565b5060019392505050565b6000336103dc85828561069e565b6103e7858585610717565b506001949350505050565b60008281526005602052604090206001015461040d81610776565b6104178383610783565b50505050565b6001600160a01b03811633146104465760405163334bd91960e11b815260040160405180910390fd5b6104508282610817565b505050565b7f97667070c54ef182b0f5858b034beac1b6f3089aa2d3188bb1e8929f4fa9b92961047f81610776565b6001600160a01b0383166104da5760405162461bcd60e51b815260206004820152601a60248201527f655257463a206d696e7420746f207a65726f206164647265737300000000000060448201526064015b60405180910390fd5b600082116105355760405162461bcd60e51b815260206004820152602260248201527f655257463a206d696e7420616d6f756e74206d75737420626520706f73697469604482015261766560f01b60648201526084016104d1565b6104508383610884565b60009182526005602090815260408084206001600160a01b0393909316845291905290205460ff1690565b60606004805461033390610cb7565b7f97667070c54ef182b0f5858b034beac1b6f3089aa2d3188bb1e8929f4fa9b9296105a381610776565b6001600160a01b0383166105f95760405162461bcd60e51b815260206004820152601c60248201527f655257463a206275726e2066726f6d207a65726f20616464726573730000000060448201526064016104d1565b600082116106545760405162461bcd60e51b815260206004820152602260248201527f655257463a206275726e20616d6f756e74206d75737420626520706f73697469604482015261766560f01b60648201526084016104d1565b61045083836108be565b6000336103c4818585610717565b60008281526005602052604090206001015461068781610776565b6104178383610817565b61045083838360016108f4565b6001600160a01b03838116600090815260016020908152604080832093861683529290522054600019811015610417578181101561070857604051637dc7a0d960e11b81526001600160a01b038416600482015260248101829052604481018390526064016104d1565b610417848484840360006108f4565b6001600160a01b03831661074157604051634b637e8f60e11b8152600060048201526024016104d1565b6001600160a01b03821661076b5760405163ec442f0560e01b8152600060048201526024016104d1565b6104508383836109c9565b6107808133610af3565b50565b600061078f838361053f565b61080f5760008381526005602090815260408083206001600160a01b03861684529091529020805460ff191660011790556107c73390565b6001600160a01b0316826001600160a01b0316847f2f8788117e7eff1d82e926ec794901d17c78024a50270940304540a733656f0d60405160405180910390a450600161031e565b50600061031e565b6000610823838361053f565b1561080f5760008381526005602090815260408083206001600160a01b0386168085529252808320805460ff1916905551339286917ff6391f5c32d9c69d2a47ea670b442974b53935d1edc7fd64eb21e047a839171b9190a450600161031e565b6001600160a01b0382166108ae5760405163ec442f0560e01b8152600060048201526024016104d1565b6108ba600083836109c9565b5050565b6001600160a01b0382166108e857604051634b637e8f60e11b8152600060048201526024016104d1565b6108ba826000836109c9565b6001600160a01b03841661091e5760405163e602df0560e01b8152600060048201526024016104d1565b6001600160a01b03831661094857604051634a1406b160e11b8152600060048201526024016104d1565b6001600160a01b038085166000908152600160209081526040808320938716835292905220829055801561041757826001600160a01b0316846001600160a01b03167f8c5be1e5ebec7d5bd14f71427d1e84f3dd0314c0f7b2291e5b200ac8c7c3b925846040516109bb91815260200190565b60405180910390a350505050565b6001600160a01b0383166109f45780600260008282546109e99190610cf1565b90915550610a669050565b6001600160a01b03831660009081526020819052604090205481811015610a475760405163391434e360e21b81526001600160a01b038516600482015260248101829052604481018390526064016104d1565b6001600160a01b03841660009081526020819052604090209082900390555b6001600160a01b038216610a8257600280548290039055610aa1565b6001600160a01b03821660009081526020819052604090208054820190555b816001600160a01b0316836001600160a01b03167fddf252ad1be2c89b69c2b068fc378daa952ba7f163c4a11628f55a4df523b3ef83604051610ae691815260200190565b60405180910390a3505050565b610afd828261053f565b6108ba5760405163e2517d3f60e01b81526001600160a01b0382166004820152602481018390526044016104d1565b600060208284031215610b3e57600080fd5b81356001600160e01b031981168114610b5657600080fd5b9392505050565b600060208083528351808285015260005b81811015610b8a57858101830151858201604001528201610b6e565b506000604082860101526040601f19601f8301168501019250505092915050565b80356001600160a01b0381168114610bc257600080fd5b919050565b60008060408385031215610bda57600080fd5b610be383610bab565b946020939093013593505050565b600080600060608486031215610c0657600080fd5b610c0f84610bab565b9250610c1d60208501610bab565b9150604084013590509250925092565b600060208284031215610c3f57600080fd5b5035919050565b60008060408385031215610c5957600080fd5b82359150610c6960208401610bab565b90509250929050565b600060208284031215610c8457600080fd5b610b5682610bab565b60008060408385031215610ca057600080fd5b610ca983610bab565b9150610c6960208401610bab565b600181811c90821680610ccb57607f821691505b602082108103610ceb57634e487b7160e01b600052602260045260246000fd5b50919050565b8082018082111561031e57634e487b7160e01b600052601160045260246000fdfea2646970667358221220755b28761613e50b0bc1ea7c84cf28aca9d7fe0cde9df618ba26fc910b91bcbe64736f6c63430008140033",
  "linkReferences": {},
  "deployedLinkReferences": {}
}