{
  "_format": "hh-sol-artifact-1",
  "contractName": "eRWF",
  "sourceName": "contracts/eRWF.sol",
  "abi": [
    {
      "inputs": [
        {
          "internalType": "address",
          "name": "operator",
          "type": "address"
        }
      ],
      "stateMutability": "nonpayable",
      "type": "constructor"
    },
    {
      "inputs": [],
      "name": "AccessControlBadConfirmation",
      "type": "error"
    },
    {
      "inputs": [
        {
          "internalType": "address",
          "name": "account",
          "type": "address"
        },
        {
          "internalType": "bytes32",
          "name": "neededRole",
          "type": "bytes32"
        }
      ],
      "name": "AccessControlUnauthorizedAccount",
      "type": "error"
    },
    {
      "inputs": [
        {
          "internalType": "address",
          "name": "spender",
          "type": "address"
        },
        {
          "internalType": "uint256",
          "name": "allowance",
          "type": "uint256"
        },
        {
          "internalType": "uint256",
          "name": "needed",
          "type": "uint256"
        }
      ],
      "name": "ERC20InsufficientAllowance",
      "type": "error"
    },
    {
      "inputs": [
        {
          "internalType": "address",
          "name": "sender",
          "type": "address"
        },
        {
          "internalType": "uint256",
          "name": "balance",
          "type": "uint256"
        },
        {
          "internalType": "uint256",
          "name": "needed",
          "type": "uint256"
        }
      ],
      "name": "ERC20InsufficientBalance",
      "type": "error"
    },
    {
      "inputs": [
        {
          "internalType": "address",
          "name": "approver",
          "type": "address"
        }
      ],
      "name": "ERC20InvalidApprover",
      "type": "error"
    },
    {
      "inputs": [
        {
          "internalType": "address",
          "name": "receiver",
          "type": "address"
        }
      ],
      "name": "ERC20InvalidReceiver",
      "type": "error"
    },
    {
      "inputs": [
        {
          "internalType": "address",
          "name": "sender",
          "type": "address"
        }
      ],
      "name": "ERC20InvalidSender",
      "type": "error"
    },
    {
      "inputs": [
        {
          "internalType": "address",
          "name": "spender",
          "type": "address"
        }
      ],
      "name": "ERC20InvalidSpender",
      "type": "error"
    },
    {
      "anonymous": false,
      "inputs": [
        {
          "indexed": true,
          "internalType": "address",
          "name": "owner",
          "type": "address"
        },
        {
          "indexed": true,
          "internalType": "address",
          "name": "spender",
          "type": "address"
        },
        {
          "indexed": false,
          "internalType": "uint256",
          "name": "value",
          "type": "uint256"
        }
      ],
      "name": "Approval",
      "type": "event"
    },
    {
      "anonymous": false,
      "inputs": [
        {
          "indexed": true,
          "internalType": "bytes32",
          "name": "role",
          "type": "bytes32"
        },
        {
          "indexed": true,
          "internalType": "bytes32",
          "name": "previousAdminRole",
          "type": "bytes32"
        },
        {
          "indexed": true,
          "internalType": "bytes32",
          "name": "newAdminRole",
          "type": "bytes32"
        }
      ],
      "name": "RoleAdminChanged",
      "type": "event"
    },
    {
      "anonymous": false,
      "inputs": [
        {
          "indexed": true,
          "internalType": "bytes32",
          "name": "role",
          "type": "bytes32"
        },
        {
          "indexed": true,
          "internalType": "address",
          "name": "account",
          "type": "address"
        },
        {
          "indexed": true,
          "internalType": "address",
          "name": "sender",
          "type": "address"
        }
      ],
      "name": "RoleGranted",
      "type": "event"
    },
    {
      "anonymous": false,
      "inputs": [
        {
          "indexed": true,
          "internalType": "bytes32",
          "name": "role",
          "type": "bytes32"
        },
        {
          "indexed": true,
          "internalType": "address",
          "name": "account",
          "type": "address"
        },
        {
          "indexed": true,
          "internalType": "address",
          "name": "sender",
          "type": "address"
        }
      ],
      "name": "RoleRevoked",
      "type": "event"
    },
    {
      "anonymous": false,
      "inputs": [
        {
          "indexed": true,
          "internalType": "address",
          "name": "from",
          "type": "address"
        },
        {
          "indexed": true,
          "internalType": "address",
          "name": "to",
          "type": "address"
        },
        {
          "indexed": false,
          "internalType": "uint256",
          "name": "value",
          "type": "uint256"
        }
      ],
      "name": "Transfer",
      "type": "event"
    },
    {
      "inputs": [],
      "name": "DEFAULT_ADMIN_ROLE",
      "outputs": [
        {
          "internalType": "bytes32",
          "name": "",
          "type": "bytes32"
        }
      ],
      "stateMutability": "view",
      "type": "function"
    },
    {
      "inputs": [],
      "name": "ESCROW_ROLE",
      "outputs": [
        {
          "internalType": "bytes32",
          "name": "",
          "type": "bytes32"
        }
      ],
      "stateMutability": "view",
      "type": "function"
    },
    {
      "inputs": [],
      "name": "OPERATOR_ROLE",
      "outputs": [
        {
          "internalType": "bytes32",
          "name": "",
          "type": "bytes32"
        }
      ],
      "stateMutability": "view",
      "type": "function"
    },
    {
      "inputs": [
        {
          "internalType": "address",
          "name": "owner",
          "type": "address"
        },
        {
          "internalType": "address",
          "name": "spender",
          "type": "address"
        }
      ],
      "name": "allowance",
      "outputs": [
        {
          "internalType": "uint256",
          "name": "",
          "type": "uint256"
        }
      ],
      "stateMutability": "view",
      "type": "function"
    },
    {
      "inputs": [
        {
          "internalType": "address",
          "name": "spender",
          "type": "address"
        },
        {
          "internalType": "uint256",
          "name": "value",
          "type": "uint256"
        }
      ],
      "name": "approve",
      "outputs": [
        {
          "internalType": "bool",
          "name": "",
          "type": "bool"
        }
      ],
      "stateMutability": "nonpayable",
      "type": "function"
    },
    {
      "inputs": [
        {
          "internalType": "address",
          "name": "account",
          "type": "address"
        }
      ],
      "name": "balanceOf",
      "outputs": [
        {
          "internalType": "uint256",
          "name": "",
          "type": "uint256"
        }
      ],
      "stateMutability": "view",
      "type": "function"
    },
    {
      "inputs": [
        {
          "internalType": "address",
          "name": "from",
          "type": "address"
        },
        {
          "internalType": "uint256",
          "name": "amount",
          "type": "uint256"
        }
      ],
      "name": "burn",
      "outputs": [],
      "stateMutability": "nonpayable",
      "type": "function"
    },
    {
      "inputs": [],
      "name": "decimals",
      "outputs": [
        {
          "internalType": "uint8",
          "name": "",
          "type": "uint8"
        }
      ],
      "stateMutability": "view",
      "type": "function"
    },
    {
      "inputs": [
        {
          "internalType": "bytes32",
          "name": "role",
          "type": "bytes32"
        }
      ],
      "name": "getRoleAdmin",
      "outputs": [
        {
          "internalType": "bytes32",
          "name": "",
          "type": "bytes32"
        }
      ],
      "stateMutability": "view",
      "type": "function"
    },
    {
      "inputs": [
        {
          "internalType": "bytes32",
          "name": "role",
          "type": "bytes32"
        },
        {
          "internalType": "address",
          "name": "account",
          "type": "address"
        }
      ],
      "name": "grantRole",
      "outputs": [],
      "stateMutability": "nonpayable",
      "type": "function"
    },
    {
      "inputs": [
        {
          "internalType": "bytes32",
          "name": "role",
          "type": "bytes32"
        },
        {
          "internalType": "address",
          "name": "account",
          "type": "address"
        }
      ],
      "name": "hasRole",
      "outputs": [
        {
          "internalType": "bool",
          "name": "",
          "type": "bool"
        }
      ],
      "stateMutability": "view",
      "type": "function"
    },
    {
      "inputs": [
        {
          "internalType": "address",
          "name": "to",
          "type": "address"
        },
        {
          "internalType": "uint256",
          "name": "amount",
          "type": "uint256"
        }
      ],
      "name": "mint",
      "outputs": [],
      "stateMutability": "nonpayable",
      "type": "function"
    },
    {
      "inputs": [],
      "name": "name",
      "outputs": [
        {
          "internalType": "string",
          "name": "",
          "type": "string"
        }
      ],
      "stateMutability": "view",
      "type": "function"
    },
    {
      "inputs": [
        {
          "internalType": "address",
          "name": "from",
          "type": "address"
        },
        {
          "internalType": "uint256",
          "name": "amount",
          "type": "uint256"
        }
      ],
      "name": "pullFrom",
      "outputs": [],
      "stateMutability": "nonpayable",
      "type": "function"
    },
    {
      "inputs": [
        {
          "internalType": "bytes32",
          "name": "role",
          "type": "bytes32"
        },
        {
          "internalType": "address",
          "name": "callerConfirmation",
          "type": "address"
        }
      ],
      "name": "renounceRole",
      "outputs": [],
      "stateMutability": "nonpayable",
      "type": "function"
    },
    {
      "inputs": [
        {
          "internalType": "bytes32",
          "name": "role",
          "type": "bytes32"
        },
        {
          "internalType": "address",
          "name": "account",
          "type": "address"
        }
      ],
      "name": "revokeRole",
      "outputs": [],
      "stateMutability": "nonpayable",
      "type": "function"
    },
    {
      "inputs": [
        {
          "internalType": "bytes4",
          "name": "interfaceId",
          "type": "bytes4"
        }
      ],
      "name": "supportsInterface",
      "outputs": [
        {
          "internalType": "bool",
          "name": "",
          "type": "bool"
        }
      ],
      "stateMutability": "view",
      "type": "function"
    },
    {
      "inputs": [],
      "name": "symbol",
      "outputs": [
        {
          "internalType": "string",
          "name": "",
          "type": "string"
        }
      ],
      "stateMutability": "view",
      "type": "function"
    },
    {
      "inputs": [],
      "name": "totalSupply",
      "outputs": [
        {
          "internalType": "uint256",
          "name": "",
          "type": "uint256"
        }
      ],
      "stateMutability": "view",
      "type": "function"
    },
    {
      "inputs": [
        {
          "internalType": "address",
          "name": "to",
          "type": "address"
        },
        {
          "internalType": "uint256",
          "name": "value",
          "type": "uint256"
        }
      ],
      "name": "transfer",
      "outputs": [
        {
          "internalType": "bool",
          "name": "",
          "type": "bool"
        }
      ],
      "stateMutability": "nonpayable",
      "type": "function"
    },
    {
      "inputs": [
        {
          "internalType": "address",
          "name": "from",
          "type": "address"
        },
        {
          "internalType": "address",
          "name": "to",
          "type": "address"
        },
        {
          "internalType": "uint256",
          "name": "value",
          "type": "uint256"
        }
      ],
      "name": "transferFrom",
      "outputs": [
        {
          "internalType": "bool",
          "name": "",
          "type": "bool"
        }
      ],
      "stateMutability": "nonpayable",
      "type": "function"
    }
  ],
  "bytecode": "0x608060405234801561000f575f5ffd5b5060405161118c38038061118c83398101604081905261002e916101e3565b6040518060400160405280601681526020017f53696d756c61746564205277616e6461204672616e63000000000000000000008152506040518060400160405280600481526020016332a92ba360e11b815250816003908161009091906102a8565b50600461009d82826102a8565b5050506001600160a01b0381166100fa5760405162461bcd60e51b815260206004820152601860248201527f496e76616c6964206f70657261746f7220616464726573730000000000000000604482015260640160405180910390fd5b6101247f97667070c54ef182b0f5858b034beac1b6f3089aa2d3188bb1e8929f4fa9b92982610136565b5061012f5f82610136565b5050610362565b5f8281526005602090815260408083206001600160a01b038516845290915281205460ff166101da575f8381526005602090815260408083206001600160a01b03861684529091529020805460ff191660011790556101923390565b6001600160a01b0316826001600160a01b0316847f2f8788117e7eff1d82e926ec794901d17c78024a50270940304540a733656f0d60405160405180910390a45060016101dd565b505f5b92915050565b5f602082840312156101f3575f5ffd5b81516001600160a01b0381168114610209575f5ffd5b9392505050565b634e487b7160e01b5f52604160045260245ffd5b600181811c9082168061023857607f821691505b60208210810361025657634e487b7160e01b5f52602260045260245ffd5b50919050565b601f8211156102a357805f5260205f20601f840160051c810160208510156102815750805b601f840160051c820191505b818110156102a0575f815560010161028d565b50505b505050565b81516001600160401b038111156102c1576102c1610210565b6102d5816102cf8454610224565b8461025c565b6020601f821160018114610307575f83156102f05750848201515b5f19600385901b1c1916600184901b1784556102a0565b5f84815260208120601f198516915b828110156103365787850151825560209485019460019092019101610316565b508482101561035357868401515f19600387901b60f8161c191681555b50505050600190811b01905550565b610e1d8061036f5f395ff3fe608060405234801561000f575f5ffd5b5060043610610132575f3560e01c80634b3dc5e6116100b45780639dc29fac116100795780639dc29fac14610294578063a217fddf146102a7578063a9059cbb146102ae578063d547741f146102c1578063dd62ed3e146102d4578063f5b541a61461030c575f5ffd5b80634b3dc5e6146102175780636ce76f301461022a57806370a082311461025157806391d148541461027957806395d89b411461028c575f5ffd5b8063248a9ca3116100fa578063248a9ca3146101ab5780632f2ff15d146101cd578063313ce567146101e257806336568abe146101f157806340c10f1914610204575f5ffd5b806301ffc9a71461013657806306fdde031461015e578063095ea7b31461017357806318160ddd1461018657806323b872dd14610198575b5f5ffd5b610149610144366004610c2e565b610333565b60405190151581526020015b60405180910390f35b610166610369565b6040516101559190610c5c565b610149610181366004610cac565b6103f9565b6002545b604051908152602001610155565b6101496101a6366004610cd4565b610410565b61018a6101b9366004610d0e565b5f9081526005602052604090206001015490565b6101e06101db366004610d25565b610433565b005b60405160128152602001610155565b6101e06101ff366004610d25565b61045d565b6101e0610212366004610cac565b610495565b6101e0610225366004610cac565b61057e565b61018a7f2fdac322ee704ce09f0773f7f3f92eb98d5e7c836ee9c056cccd5f61041e5e3f81565b61018a61025f366004610d4f565b6001600160a01b03165f9081526020819052604090205490565b610149610287366004610d25565b61065a565b610166610684565b6101e06102a2366004610cac565b610693565b61018a5f81565b6101496102bc366004610cac565b610777565b6101e06102cf366004610d25565b610784565b61018a6102e2366004610d68565b6001600160a01b039182165f90815260016020908152604080832093909416825291909152205490565b61018a7f97667070c54ef182b0f5858b034beac1b6f3089aa2d3188bb1e8929f4fa9b92981565b5f6001600160e01b03198216637965db0b60e01b148061036357506301ffc9a760e01b6001600160e01b03198316145b92915050565b60606003805461037890610d90565b80601f01602080910402602001604051908101604052809291908181526020018280546103a490610d90565b80156103ef5780601f106103c6576101008083540402835291602001916103ef565b820191905f5260205f20905b8154815290600101906020018083116103d257829003601f168201915b5050505050905090565b5f336104068185856107a8565b5060019392505050565b5f3361041d8582856107b5565b61042885858561082b565b506001949350505050565b5f8281526005602052604090206001015461044d81610888565b6104578383610895565b50505050565b6001600160a01b03811633146104865760405163334bd91960e11b815260040160405180910390fd5b6104908282610926565b505050565b7f97667070c54ef182b0f5858b034beac1b6f3089aa2d3188bb1e8929f4fa9b9296104bf81610888565b6001600160a01b03831661051a5760405162461bcd60e51b815260206004820152601a60248201527f655257463a206d696e7420746f207a65726f206164647265737300000000000060448201526064015b60405180910390fd5b5f82116105745760405162461bcd60e51b815260206004820152602260248201527f655257463a206d696e7420616d6f756e74206d75737420626520706f73697469604482015261766560f01b6064820152608401610511565b6104908383610991565b7f2fdac322ee704ce09f0773f7f3f92eb98d5e7c836ee9c056cccd5f61041e5e3f6105a881610888565b6001600160a01b0383166105f55760405162461bcd60e51b8152602060048201526014602482015273655257463a2070756c6c2066726f6d207a65726f60601b6044820152606401610511565b5f821161064f5760405162461bcd60e51b815260206004820152602260248201527f655257463a2070756c6c20616d6f756e74206d75737420626520706f73697469604482015261766560f01b6064820152608401610511565b61049083338461082b565b5f9182526005602090815260408084206001600160a01b0393909316845291905290205460ff1690565b60606004805461037890610d90565b7f97667070c54ef182b0f5858b034beac1b6f3089aa2d3188bb1e8929f4fa9b9296106bd81610888565b6001600160a01b0383166107135760405162461bcd60e51b815260206004820152601c60248201527f655257463a206275726e2066726f6d207a65726f2061646472657373000000006044820152606401610511565b5f821161076d5760405162461bcd60e51b815260206004820152602260248201527f655257463a206275726e20616d6f756e74206d75737420626520706f73697469604482015261766560f01b6064820152608401610511565b61049083836109c9565b5f3361040681858561082b565b5f8281526005602052604090206001015461079e81610888565b6104578383610926565b61049083838360016109fd565b6001600160a01b038381165f908152600160209081526040808320938616835292905220545f19811015610457578181101561081d57604051637dc7a0d960e11b81526001600160a01b03841660048201526024810182905260448101839052606401610511565b61045784848484035f6109fd565b6001600160a01b03831661085457604051634b637e8f60e11b81525f6004820152602401610511565b6001600160a01b03821661087d5760405163ec442f0560e01b81525f6004820152602401610511565b610490838383610acf565b6108928133610bf5565b50565b5f6108a0838361065a565b61091f575f8381526005602090815260408083206001600160a01b03861684529091529020805460ff191660011790556108d73390565b6001600160a01b0316826001600160a01b0316847f2f8788117e7eff1d82e926ec794901d17c78024a50270940304540a733656f0d60405160405180910390a4506001610363565b505f610363565b5f610931838361065a565b1561091f575f8381526005602090815260408083206001600160a01b0386168085529252808320805460ff1916905551339286917ff6391f5c32d9c69d2a47ea670b442974b53935d1edc7fd64eb21e047a839171b9190a4506001610363565b6001600160a01b0382166109ba5760405163ec442f0560e01b81525f6004820152602401610511565b6109c55f8383610acf565b5050565b6001600160a01b0382166109f257604051634b637e8f60e11b81525f6004820152602401610511565b6109c5825f83610acf565b6001600160a01b038416610a265760405163e602df0560e01b81525f6004820152602401610511565b6001600160a01b038316610a4f57604051634a1406b160e11b81525f6004820152602401610511565b6001600160a01b038085165f908152600160209081526040808320938716835292905220829055801561045757826001600160a01b0316846001600160a01b03167f8c5be1e5ebec7d5bd14f71427d1e84f3dd0314c0f7b2291e5b200ac8c7c3b92584604051610ac191815260200190565b60405180910390a350505050565b6001600160a01b038316610af9578060025f828254610aee9190610dc8565b90915550610b699050565b6001600160a01b0383165f9081526020819052604090205481811015610b4b5760405163391434e360e21b81526001600160a01b03851660048201526024810182905260448101839052606401610511565b6001600160a01b0384165f9081526020819052604090209082900390555b6001600160a01b038216610b8557600280548290039055610ba3565b6001600160a01b0382165f9081526020819052604090208054820190555b816001600160a01b0316836001600160a01b03167fddf252ad1be2c89b69c2b068fc378daa952ba7f163c4a11628f55a4df523b3ef83604051610be891815260200190565b60405180910390a3505050565b610bff828261065a565b6109c55760405163e2517d3f60e01b81526001600160a01b038216600482015260248101839052604401610511565b5f60208284031215610c3e575f5ffd5b81356001600160e01b031981168114610c55575f5ffd5b9392505050565b602081525f82518060208401528060208501604085015e5f604082850101526040601f19601f83011684010191505092915050565b80356001600160a01b0381168114610ca7575f5ffd5b919050565b5f5f60408385031215610cbd575f5ffd5b610cc683610c91565b946020939093013593505050565b5f5f5f60608486031215610ce6575f5ffd5b610cef84610c91565b9250610cfd60208501610c91565b929592945050506040919091013590565b5f60208284031215610d1e575f5ffd5b5035919050565b5f5f60408385031215610d36575f5ffd5b82359150610d4660208401610c91565b90509250929050565b5f60208284031215610d5f575f5ffd5b610c5582610c91565b5f5f60408385031215610d79575f5ffd5b610d8283610c91565b9150610d4660208401610c91565b600181811c90821680610da457607f821691505b602082108103610dc257634e487b7160e01b5f52602260045260245ffd5b50919050565b8082018082111561036357634e487b7160e01b5f52601160045260245ffdfea264697066735822122004c862f9668d88f00e1edce37b0868e0f49bc5f52cd7ae3f3cde7a572356c8f064736f6c634300081c0033",
  "linkReferences": {},
  "deployedLinkReferences": {}
}