{
  "_format": "hh-sol-artifact-1",
  "contractName": "Escrow",
  "sourceName": "contracts/Escrow.sol",
  "abi": [
    {
      "inputs": [
        {
          "internalType": "address",
          "name": "_token",
          "type": "address"
        },
        {
          "internalType": "address",
          "name": "admin",
          "type": "address"
        }
      ],
      "stateMutability": "nonpayable",
      "type": "constructor"
    },
    {
      "inputs": [],
      "name": "AccessControlBadConfirmation",
      "type": "error"
    },
    {
      "inputs": [
        {
          "internalType": "address",
          "name": "account",
          "type": "address"
        },
        {
          "internalType": "bytes32",
          "name": "neededRole",
          "type": "bytes32"
        }
      ],
      "name": "AccessControlUnauthorizedAccount",
      "type": "error"
    },
    {
      "inputs": [],
      "name": "ECDSAInvalidSignature",
      "type": "error"
    },
    {
      "inputs": [
        {
          "internalType": "uint256",
          "name": "length",
          "type": "uint256"
        }
      ],
      "name": "ECDSAInvalidSignatureLength",
      "type": "error"
    },
    {
      "inputs": [
        {
          "internalType": "bytes32",
          "name": "s",
          "type": "bytes32"
        }
      ],
      "name": "ECDSAInvalidSignatureS",
      "type": "error"
    },
    {
      "inputs": [],
      "name": "ReentrancyGuardReentrantCall",
      "type": "error"
    },
    {
      "anonymous": false,
      "inputs": [
        {
          "indexed": true,
          "internalType": "uint256",
          "name": "dealId",
          "type": "uint256"
        },
        {
          "indexed": false,
          "internalType": "uint256",
          "name": "timestamp",
          "type": "uint256"
        }
      ],
      "name": "DealAutoCancelled",
      "type": "event"
    },
    {
      "anonymous": false,
      "inputs": [
        {
          "indexed": true,
          "internalType": "uint256",
          "name": "dealId",
          "type": "uint256"
        },
        {
          "indexed": false,
          "internalType": "uint256",
          "name": "timestamp",
          "type": "uint256"
        }
      ],
      "name": "DealCancelled",
      "type": "event"
    },
    {
      "anonymous": false,
      "inputs": [
        {
          "indexed": true,
          "internalType": "uint256",
          "name": "dealId",
          "type": "uint256"
        },
        {
          "indexed": true,
          "internalType": "address",
          "name": "sender",
          "type": "address"
        },
        {
          "indexed": true,
          "internalType": "address",
          "name": "driver",
          "type": "address"
        },
        {
          "indexed": false,
          "internalType": "address",
          "name": "receiver",
          "type": "address"
        },
        {
          "indexed": false,
          "internalType": "uint256",
          "name": "amount",
          "type": "uint256"
        },
        {
          "indexed": false,
          "internalType": "uint256",
          "name": "createdAt",
          "type": "uint256"
        }
      ],
      "name": "DealCreated",
      "type": "event"
    },
    {
      "anonymous": false,
      "inputs": [
        {
          "indexed": true,
          "internalType": "uint256",
          "name": "dealId",
          "type": "uint256"
        },
        {
          "indexed": true,
          "internalType": "address",
          "name": "revokedBy",
          "type": "address"
        },
        {
          "indexed": false,
          "internalType": "uint8",
          "name": "reasonCode",
          "type": "uint8"
        },
        {
          "indexed": false,
          "internalType": "uint256",
          "name": "timestamp",
          "type": "uint256"
        }
      ],
      "name": "DealRevoked",
      "type": "event"
    },
    {
      "anonymous": false,
      "inputs": [
        {
          "indexed": true,
          "internalType": "uint256",
          "name": "dealId",
          "type": "uint256"
        },
        {
          "indexed": true,
          "internalType": "address",
          "name": "admin",
          "type": "address"
        },
        {
          "indexed": false,
          "internalType": "uint256",
          "name": "amountToSender",
          "type": "uint256"
        },
        {
          "indexed": false,
          "internalType": "uint256",
          "name": "amountToReceiver",
          "type": "uint256"
        },
        {
          "indexed": false,
          "internalType": "uint256",
          "name": "timestamp",
          "type": "uint256"
        }
      ],
      "name": "DisputeResolved",
      "type": "event"
    },
    {
      "anonymous": false,
      "inputs": [
        {
          "indexed": true,
          "internalType": "uint256",
          "name": "dealId",
          "type": "uint256"
        },
        {
          "indexed": true,
          "internalType": "address",
          "name": "receiver",
          "type": "address"
        },
        {
          "indexed": false,
          "internalType": "uint256",
          "name": "amount",
          "type": "uint256"
        },
        {
          "indexed": false,
          "internalType": "uint256",
          "name": "timestamp",
          "type": "uint256"
        }
      ],
      "name": "FundsLocked",
      "type": "event"
    },
    {
      "anonymous": false,
      "inputs": [
        {
          "indexed": true,
          "internalType": "uint256",
          "name": "dealId",
          "type": "uint256"
        },
        {
          "indexed": true,
          "internalType": "address",
          "name": "sender",
          "type": "address"
        },
        {
          "indexed": false,
          "internalType": "uint256",
          "name": "amount",
          "type": "uint256"
        },
        {
          "indexed": false,
          "internalType": "uint256",
          "name": "timestamp",
          "type": "uint256"
        }
      ],
      "name": "FundsReleased",
      "type": "event"
    },
    {
      "anonymous": false,
      "inputs": [
        {
          "indexed": true,
          "internalType": "uint256",
          "name": "dealId",
          "type": "uint256"
        },
        {
          "indexed": true,
          "internalType": "address",
          "name": "driver",
          "type": "address"
        },
        {
          "indexed": false,
          "internalType": "uint256",
          "name": "timestamp",
          "type": "uint256"
        },
        {
          "indexed": false,
          "internalType": "uint256",
          "name": "payoutReadyTime",
          "type": "uint256"
        }
      ],
      "name": "MarkedDelivered",
      "type": "event"
    },
    {
      "anonymous": false,
      "inputs": [
        {
          "indexed": true,
          "internalType": "uint256",
          "name": "dealId",
          "type": "uint256"
        },
        {
          "indexed": true,
          "internalType": "address",
          "name": "sender",
          "type": "address"
        },
        {
          "indexed": false,
          "internalType": "uint256",
          "name": "timestamp",
          "type": "uint256"
        }
      ],
      "name": "MarkedShipped",
      "type": "event"
    },
    {
      "anonymous": false,
      "inputs": [
        {
          "indexed": true,
          "internalType": "bytes32",
          "name": "role",
          "type": "bytes32"
        },
        {
          "indexed": true,
          "internalType": "bytes32",
          "name": "previousAdminRole",
          "type": "bytes32"
        },
        {
          "indexed": true,
          "internalType": "bytes32",
          "name": "newAdminRole",
          "type": "bytes32"
        }
      ],
      "name": "RoleAdminChanged",
      "type": "event"
    },
    {
      "anonymous": false,
      "inputs": [
        {
          "indexed": true,
          "internalType": "bytes32",
          "name": "role",
          "type": "bytes32"
        },
        {
          "indexed": true,
          "internalType": "address",
          "name": "account",
          "type": "address"
        },
        {
          "indexed": true,
          "internalType": "address",
          "name": "sender",
          "type": "address"
        }
      ],
      "name": "RoleGranted",
      "type": "event"
    },
    {
      "anonymous": false,
      "inputs": [
        {
          "indexed": true,
          "internalType": "bytes32",
          "name": "role",
          "type": "bytes32"
        },
        {
          "indexed": true,
          "internalType": "address",
          "name": "account",
          "type": "address"
        },
        {
          "indexed": true,
          "internalType": "address",
          "name": "sender",
          "type": "address"
        }
      ],
      "name": "RoleRevoked",
      "type": "event"
    },
    {
      "inputs": [],
      "name": "ADMIN_ROLE",
      "outputs": [
        {
          "internalType": "bytes32",
          "name": "",
          "type": "bytes32"
        }
      ],
      "stateMutability": "view",
      "type": "function"
    },
    {
      "inputs": [],
      "name": "DEFAULT_ADMIN_ROLE",
      "outputs": [
        {
          "internalType": "bytes32",
          "name": "",
          "type": "bytes32"
        }
      ],
      "stateMutability": "view",
      "type": "function"
    },
    {
      "inputs": [],
      "name": "DISPUTE_WINDOW",
      "outputs": [
        {
          "internalType": "uint256",
          "name": "",
          "type": "uint256"
        }
      ],
      "stateMutability": "view",
      "type": "function"
    },
    {
      "inputs": [],
      "name": "DOMAIN_SEPARATOR",
      "outputs": [
        {
          "internalType": "bytes32",
          "name": "",
          "type": "bytes32"
        }
      ],
      "stateMutability": "view",
      "type": "function"
    },
    {
      "inputs": [],
      "name": "FUND_LOCK_WINDOW",
      "outputs": [
        {
          "internalType": "uint256",
          "name": "",
          "type": "uint256"
        }
      ],
      "stateMutability": "view",
      "type": "function"
    },
    {
      "inputs": [
        {
          "internalType": "uint256",
          "name": "dealId",
          "type": "uint256"
        }
      ],
      "name": "autoCancelIfUnlocked",
      "outputs": [],
      "stateMutability": "nonpayable",
      "type": "function"
    },
    {
      "inputs": [
        {
          "internalType": "uint256",
          "name": "dealId",
          "type": "uint256"
        },
        {
          "internalType": "address",
          "name": "caller",
          "type": "address"
        },
        {
          "internalType": "bytes",
          "name": "signature",
          "type": "bytes"
        }
      ],
      "name": "cancelBeforeLock",
      "outputs": [],
      "stateMutability": "nonpayable",
      "type": "function"
    },
    {
      "inputs": [
        {
          "internalType": "address",
          "name": "sender",
          "type": "address"
        },
        {
          "internalType": "address",
          "name": "driver",
          "type": "address"
        },
        {
          "internalType": "address",
          "name": "receiver",
          "type": "address"
        },
        {
          "internalType": "uint256",
          "name": "amount",
          "type": "uint256"
        },
        {
          "internalType": "bytes",
          "name": "signature",
          "type": "bytes"
        }
      ],
      "name": "createDeal",
      "outputs": [
        {
          "internalType": "uint256",
          "name": "",
          "type": "uint256"
        }
      ],
      "stateMutability": "nonpayable",
      "type": "function"
    },
    {
      "inputs": [
        {
          "internalType": "uint256",
          "name": "",
          "type": "uint256"
        }
      ],
      "name": "deals",
      "outputs": [
        {
          "internalType": "address",
          "name": "sender",
          "type": "address"
        },
        {
          "internalType": "address",
          "name": "driver",
          "type": "address"
        },
        {
          "internalType": "address",
          "name": "receiver",
          "type": "address"
        },
        {
          "internalType": "uint256",
          "name": "amount",
          "type": "uint256"
        },
        {
          "internalType": "enum Escrow.Status",
          "name": "status",
          "type": "uint8"
        },
        {
          "internalType": "uint256",
          "name": "createdAt",
          "type": "uint256"
        },
        {
          "internalType": "uint256",
          "name": "fundLockDeadline",
          "type": "uint256"
        },
        {
          "internalType": "uint256",
          "name": "payoutReadyTime",
          "type": "uint256"
        },
        {
          "internalType": "bool",
          "name": "isDisputed",
          "type": "bool"
        },
        {
          "internalType": "uint8",
          "name": "disputeReasonCode",
          "type": "uint8"
        }
      ],
      "stateMutability": "view",
      "type": "function"
    },
    {
      "inputs": [
        {
          "internalType": "uint256",
          "name": "dealId",
          "type": "uint256"
        }
      ],
      "name": "getDeal",
      "outputs": [
        {
          "components": [
            {
              "internalType": "address",
              "name": "sender",
              "type": "address"
            },
            {
              "internalType": "address",
              "name": "driver",
              "type": "address"
            },
            {
              "internalType": "address",
              "name": "receiver",
              "type": "address"
            },
            {
              "internalType": "uint256",
              "name": "amount",
              "type": "uint256"
            },
            {
              "internalType": "enum Escrow.Status",
              "name": "status",
              "type": "uint8"
            },
            {
              "internalType": "uint256",
              "name": "createdAt",
              "type": "uint256"
            },
            {
              "internalType": "uint256",
              "name": "fundLockDeadline",
              "type": "uint256"
            },
            {
              "internalType": "uint256",
              "name": "payoutReadyTime",
              "type": "uint256"
            },
            {
              "internalType": "bool",
              "name": "isDisputed",
              "type": "bool"
            },
            {
              "internalType": "uint8",
              "name": "disputeReasonCode",
              "type": "uint8"
            }
          ],
          "internalType": "struct Escrow.Deal",
          "name": "",
          "type": "tuple"
        }
      ],
      "stateMutability": "view",
      "type": "function"
    },
    {
      "inputs": [
        {
          "internalType": "address",
          "name": "user",
          "type": "address"
        }
      ],
      "name": "getNonce",
      "outputs": [
        {
          "internalType": "uint256",
          "name": "",
          "type": "uint256"
        }
      ],
      "stateMutability": "view",
      "type": "function"
    },
    {
      "inputs": [
        {
          "internalType": "bytes32",
          "name": "role",
          "type": "bytes32"
        }
      ],
      "name": "getRoleAdmin",
      "outputs": [
        {
          "internalType": "bytes32",
          "name": "",
          "type": "bytes32"
        }
      ],
      "stateMutability": "view",
      "type": "function"
    },
    {
      "inputs": [
        {
          "internalType": "bytes32",
          "name": "role",
          "type": "bytes32"
        },
        {
          "internalType": "address",
          "name": "account",
          "type": "address"
        }
      ],
      "name": "grantRole",
      "outputs": [],
      "stateMutability": "nonpayable",
      "type": "function"
    },
    {
      "inputs": [
        {
          "internalType": "bytes32",
          "name": "role",
          "type": "bytes32"
        },
        {
          "internalType": "address",
          "name": "account",
          "type": "address"
        }
      ],
      "name": "hasRole",
      "outputs": [
        {
          "internalType": "bool",
          "name": "",
          "type": "bool"
        }
      ],
      "stateMutability": "view",
      "type": "function"
    },
    {
      "inputs": [
        {
          "internalType": "uint256",
          "name": "dealId",
          "type": "uint256"
        },
        {
          "internalType": "bytes",
          "name": "signature",
          "type": "bytes"
        }
      ],
      "name": "lockFunds",
      "outputs": [],
      "stateMutability": "nonpayable",
      "type": "function"
    },
    {
      "inputs": [
        {
          "internalType": "uint256",
          "name": "dealId",
          "type": "uint256"
        },
        {
          "internalType": "bytes",
          "name": "signature",
          "type": "bytes"
        }
      ],
      "name": "markDelivered",
      "outputs": [],
      "stateMutability": "nonpayable",
      "type": "function"
    },
    {
      "inputs": [
        {
          "internalType": "uint256",
          "name": "dealId",
          "type": "uint256"
        },
        {
          "internalType": "bytes",
          "name": "signature",
          "type": "bytes"
        }
      ],
      "name": "markShipped",
      "outputs": [],
      "stateMutability": "nonpayable",
      "type": "function"
    },
    {
      "inputs": [],
      "name": "nextDealId",
      "outputs": [
        {
          "internalType": "uint256",
          "name": "",
          "type": "uint256"
        }
      ],
      "stateMutability": "view",
      "type": "function"
    },
    {
      "inputs": [
        {
          "internalType": "address",
          "name": "",
          "type": "address"
        }
      ],
      "name": "nonces",
      "outputs": [
        {
          "internalType": "uint256",
          "name": "",
          "type": "uint256"
        }
      ],
      "stateMutability": "view",
      "type": "function"
    },
    {
      "inputs": [
        {
          "internalType": "uint256",
          "name": "dealId",
          "type": "uint256"
        }
      ],
      "name": "releaseFunds",
      "outputs": [],
      "stateMutability": "nonpayable",
      "type": "function"
    },
    {
      "inputs": [
        {
          "internalType": "bytes32",
          "name": "role",
          "type": "bytes32"
        },
        {
          "internalType": "address",
          "name": "callerConfirmation",
          "type": "address"
        }
      ],
      "name": "renounceRole",
      "outputs": [],
      "stateMutability": "nonpayable",
      "type": "function"
    },
    {
      "inputs": [
        {
          "internalType": "uint256",
          "name": "dealId",
          "type": "uint256"
        },
        {
          "internalType": "uint256",
          "name": "amountToSender",
          "type": "uint256"
        },
        {
          "internalType": "uint256",
          "name": "amountToReceiver",
          "type": "uint256"
        }
      ],
      "name": "resolveDispute",
      "outputs": [],
      "stateMutability": "nonpayable",
      "type": "function"
    },
    {
      "inputs": [
        {
          "internalType": "uint256",
          "name": "dealId",
          "type": "uint256"
        },
        {
          "internalType": "uint8",
          "name": "reasonCode",
          "type": "uint8"
        },
        {
          "internalType": "address",
          "name": "caller",
          "type": "address"
        },
        {
          "internalType": "bytes",
          "name": "signature",
          "type": "bytes"
        }
      ],
      "name": "revoke",
      "outputs": [],
      "stateMutability": "nonpayable",
      "type": "function"
    },
    {
      "inputs": [
        {
          "internalType": "bytes32",
          "name": "role",
          "type": "bytes32"
        },
        {
          "internalType": "address",
          "name": "account",
          "type": "address"
        }
      ],
      "name": "revokeRole",
      "outputs": [],
      "stateMutability": "nonpayable",
      "type": "function"
    },
    {
      "inputs": [
        {
          "internalType": "bytes4",
          "name": "interfaceId",
          "type": "bytes4"
        }
      ],
      "name": "supportsInterface",
      "outputs": [
        {
          "internalType": "bool",
          "name": "",
          "type": "bool"
        }
      ],
      "stateMutability": "view",
      "type": "function"
    },
    {
      "inputs": [],
      "name": "token",
      "outputs": [
        {
          "internalType": "contract eRWF",
          "name": "",
          "type": "address"
        }
      ],
      "stateMutability": "view",
      "type": "function"
    }
  ],
  "bytecode": "0x60a06040523480156200001157600080fd5b506040516200265a3803806200265a833981016040819052620000349162000312565b60017f9b779b17422d0df92223018b32b4d1fa46e071723d6817e2486d003becc55f00556001600160a01b038216620000b45760405162461bcd60e51b815260206004820152601560248201527f496e76616c696420746f6b656e2061646472657373000000000000000000000060448201526064015b60405180910390fd5b6001600160a01b0381166200010c5760405162461bcd60e51b815260206004820152601560248201527f496e76616c69642061646d696e206164647265737300000000000000000000006044820152606401620000ab565b600180546001600160a01b0319166001600160a01b0384161790556200013460008262000246565b50620001617fa49807205ce4d355092ef5a8a18f56e8913cf4a201fbe287825b095693c217758262000246565b50604080518082018252600e81526d115cd8dc9bddd0dbdb9d1c9858dd60921b6020918201528151808301835260018152603160f81b9082015281517f8b73c3c69bb8fe3d512ecc4cf759cc79239f7b179b0ffacaa9a75d522b39400f918101919091527f6813732d6dc66510b087d48aaad6380f9bab2ffe645d59391b3426fdfb03e069918101919091527fc89efdaa54c0f20c7adf612882df0950f5a951637e0307cdcb4c672f298b8bc660608201524660808201523060a082015260c00160408051601f198184030181529190528051602090910120608052506200034a9050565b6000828152602081815260408083206001600160a01b038516845290915281205460ff16620002eb576000838152602081815260408083206001600160a01b03861684529091529020805460ff19166001179055620002a23390565b6001600160a01b0316826001600160a01b0316847f2f8788117e7eff1d82e926ec794901d17c78024a50270940304540a733656f0d60405160405180910390a4506001620002ef565b5060005b92915050565b80516001600160a01b03811681146200030d57600080fd5b919050565b600080604083850312156200032657600080fd5b6200033183620002f5565b91506200034160208401620002f5565b90509250929050565b6080516122ed6200036d600039600081816102c50152611a2301526122ed6000f3fe608060405234801561001057600080fd5b506004361061018e5760003560e01c80637ecebe00116100de578063a217fddf11610097578063d81307f011610071578063d81307f01461041d578063f585dc5714610430578063f7d1573014610439578063fc0c546a1461044c57600080fd5b8063a217fddf146103ef578063bd11a925146103f7578063d547741f1461040a57600080fd5b80637ecebe001461036357806382fd5bac1461038357806385a715f1146103a35780638863b3a2146103b657806391d14854146103c957806399768ddf146103dc57600080fd5b80633644e5151161014b5780634d68282f116101255780634d68282f1461030d5780634d9879e31461032057806375b238fc1461032957806378a311571461035057600080fd5b80633644e515146102c057806336568abe146102e75780633fabe74f146102fa57600080fd5b806301ffc9a71461019357806303988f84146101bb578063095cb06314610247578063248a9ca31461025f5780632d0335ab146102825780632f2ff15d146102ab575b600080fd5b6101a66101a1366004611df3565b610477565b60405190151581526020015b60405180910390f35b6102316101c9366004611e24565b60046020819052600091825260409091208054600182015460028301546003840154948401546005850154600686015460078701546008909701546001600160a01b039687169895871697949096169560ff938416949293919291818116916101009004168a565b6040516101b29a99989796959493929190611e75565b6102516201518081565b6040519081526020016101b2565b61025161026d366004611e24565b60009081526020819052604090206001015490565b610251610290366004611ef9565b6001600160a01b031660009081526003602052604090205490565b6102be6102b9366004611f14565b6104ae565b005b6102517f000000000000000000000000000000000000000000000000000000000000000081565b6102be6102f5366004611f14565b6104d9565b6102be610308366004611f40565b610511565b6102be61031b366004611e24565b61081d565b61025160025481565b6102517fa49807205ce4d355092ef5a8a18f56e8913cf4a201fbe287825b095693c2177581565b6102be61035e366004611fb5565b610a27565b610251610371366004611ef9565b60036020526000908152604090205481565b610396610391366004611e24565b610b6f565b6040516101b2919061200f565b6102be6103b13660046120ba565b610c87565b6102be6103c43660046120ba565b610d97565b6101a66103d7366004611f14565b610fb5565b6102be6103ea366004611e24565b610fde565b610251600081565b610251610405366004612106565b6110be565b6102be610418366004611f14565b61152e565b6102be61042b3660046120ba565b611553565b610251612a3081565b6102be610447366004612185565b611677565b60015461045f906001600160a01b031681565b6040516001600160a01b0390911681526020016101b2565b60006001600160e01b03198216637965db0b60e01b14806104a857506301ffc9a760e01b6001600160e01b03198316145b92915050565b6000828152602081905260409020600101546104c98161185c565b6104d38383611866565b50505050565b6001600160a01b03811633146105025760405163334bd91960e11b815260040160405180910390fd5b61050c82826118f8565b505050565b7fa49807205ce4d355092ef5a8a18f56e8913cf4a201fbe287825b095693c2177561053b8161185c565b610543611963565b600084815260046020819052604090912090600482015460ff16600781111561056e5761056e611e3d565b146105c05760405162461bcd60e51b815260206004820152601b60248201527f4465616c206e6f7420696e20446973707574656420737461747573000000000060448201526064015b60405180910390fd5b60038101546105cf8486612212565b1461061c5760405162461bcd60e51b815260206004820152601f60248201527f416d6f756e7473206d7573742073756d20746f206465616c20616d6f756e740060448201526064016105b7565b60048101805460ff1916600717905583156106f557600154815460405163a9059cbb60e01b81526001600160a01b0391821660048201526024810187905291169063a9059cbb906044016020604051808303816000875af1158015610685573d6000803e3d6000fd5b505050506040513d601f19601f820116820180604052508101906106a99190612225565b6106f55760405162461bcd60e51b815260206004820152601960248201527f5472616e7366657220746f2073656e646572206661696c65640000000000000060448201526064016105b7565b82156107c257600154600282015460405163a9059cbb60e01b81526001600160a01b0391821660048201526024810186905291169063a9059cbb906044016020604051808303816000875af1158015610752573d6000803e3d6000fd5b505050506040513d601f19601f820116820180604052508101906107769190612225565b6107c25760405162461bcd60e51b815260206004820152601b60248201527f5472616e7366657220746f207265636569766572206661696c6564000000000060448201526064016105b7565b604080518581526020810185905242818301529051339187917ff2b306c6988ab9d9ba081e4ded2e7c9fbc64fc27639527f2b7bf0bb19194ea929181900360600190a3506104d3600160008051602061229883398151915255565b610825611963565b60008181526004602052604090206003600482015460ff16600781111561084e5761084e611e3d565b1461089b5760405162461bcd60e51b815260206004820152601c60248201527f4465616c206e6f7420696e2044656c697665726564207374617475730000000060448201526064016105b7565b80600701544210156108ef5760405162461bcd60e51b815260206004820152601a60248201527f446973707574652077696e646f77206e6f74206578706972656400000000000060448201526064016105b7565b6004818101805460ff191660051790556001548254600384015460405163a9059cbb60e01b81526001600160a01b03928316948101949094526024840152169063a9059cbb906044016020604051808303816000875af1158015610957573d6000803e3d6000fd5b505050506040513d601f19601f8201168201806040525081019061097b9190612225565b6109bf5760405162461bcd60e51b8152602060048201526015602482015274151bdad95b881d1c985b9cd9995c8819985a5b1959605a1b60448201526064016105b7565b80546003820154604080519182524260208301526001600160a01b039092169184917f93e901cc5aea20ea9655887d9290a3215a5b3999c024812f4e4b749f7534349c910160405180910390a350610a24600160008051602061229883398151915255565b50565b610a5c836040518060400160405280601081526020016f63616e63656c4265666f72654c6f636b60801b81525086858561197f565b50600084815260046020526040902080546001600160a01b0385811691161480610a95575060028101546001600160a01b038581169116145b610aec5760405162461bcd60e51b815260206004820152602260248201527f4f6e6c792073656e646572206f722072656365697665722063616e2063616e63604482015261195b60f21b60648201526084016105b7565b6000600482015460ff166007811115610b0757610b07611e3d565b14610b245760405162461bcd60e51b81526004016105b790612247565b60048101805460ff1916600617905560405142815285907faf3855a84ba7ae9060a15c82675adab08caab3cb5ba10b102c3f0dd8279da0219060200160405180910390a25050505050565b6040805161014081018252600080825260208201819052918101829052606081018290526080810182905260a0810182905260c0810182905260e08101829052610100810182905261012081019190915260008281526004602081815260409283902083516101408101855281546001600160a01b03908116825260018301548116938201939093526002820154909216938201939093526003830154606082015290820154909190608083019060ff166007811115610c3157610c31611e3d565b6007811115610c4257610c42611e3d565b815260058201546020820152600682015460408201526007820154606082015260089091015460ff808216151560808401526101009091041660a09091015292915050565b600083815260046020908152604080832080548251808401909352600b83526a1b585c9ad4da1a5c1c195960aa1b938301939093529291610cd6916001600160a01b039091169087878761197f565b90506001600483015460ff166007811115610cf357610cf3611e3d565b14610d405760405162461bcd60e51b815260206004820152601a60248201527f46756e6473206d757374206265206c6f636b656420666972737400000000000060448201526064016105b7565b60048201805460ff191660021790556040514281526001600160a01b0382169086907ff07eccd3528f7adce23d7a377217386973f2290f41ba8dd40fc69f8087850645906020015b60405180910390a35050505050565b610d9f611963565b60008381526004602090815260408083206002810154825180840190935260098352686c6f636b46756e647360b81b938301939093529291610def916001600160a01b039091169087878761197f565b90506000600483015460ff166007811115610e0c57610e0c611e3d565b14610e295760405162461bcd60e51b81526004016105b790612247565b8160060154421115610e7d5760405162461bcd60e51b815260206004820152601960248201527f46756e64206c6f636b20646561646c696e65207061737365640000000000000060448201526064016105b7565b60015460038301546040516323b872dd60e01b81526001600160a01b03848116600483015230602483015260448201929092529116906323b872dd906064016020604051808303816000875af1158015610edb573d6000803e3d6000fd5b505050506040513d601f19601f82011682018060405250810190610eff9190612225565b610f435760405162461bcd60e51b8152602060048201526015602482015274151bdad95b881d1c985b9cd9995c8819985a5b1959605a1b60448201526064016105b7565b60048201805460ff191660011790556003820154604080519182524260208301526001600160a01b0383169187917fab4fc4352018381da6bb7715e4cdc58516ae4fcf7dbbc4c212bbcfbcc8dcdf88910160405180910390a3505061050c600160008051602061229883398151915255565b6000918252602082815260408084206001600160a01b0393909316845291905290205460ff1690565b600081815260046020526040812090600482015460ff16600781111561100657611006611e3d565b146110235760405162461bcd60e51b81526004016105b790612247565b806006015442116110765760405162461bcd60e51b815260206004820152601760248201527f446561646c696e65206e6f74207061737365642079657400000000000000000060448201526064016105b7565b60048101805460ff1916600617905560405142815282907fe303c7f81e59541073692fe5ee336f986a31fba23ed11456d7f70034ef3ac4cc9060200160405180910390a25050565b60006001600160a01b03871661110f5760405162461bcd60e51b8152602060048201526016602482015275496e76616c69642073656e646572206164647265737360501b60448201526064016105b7565b611140876040518060400160405280600a81526020016918dc99585d195119585b60b21b815250600254868661197f565b506001600160a01b0386166111905760405162461bcd60e51b8152602060048201526016602482015275496e76616c696420647269766572206164647265737360501b60448201526064016105b7565b6001600160a01b0385166111e65760405162461bcd60e51b815260206004820152601860248201527f496e76616c69642072656365697665722061646472657373000000000000000060448201526064016105b7565b600084116112365760405162461bcd60e51b815260206004820152601760248201527f416d6f756e74206d75737420626520706f73697469766500000000000000000060448201526064016105b7565b856001600160a01b0316876001600160a01b0316036112975760405162461bcd60e51b815260206004820152601760248201527f53656e6465722063616e6e6f742062652064726976657200000000000000000060448201526064016105b7565b846001600160a01b0316876001600160a01b0316036112f85760405162461bcd60e51b815260206004820152601960248201527f53656e6465722063616e6e6f742062652072656365697665720000000000000060448201526064016105b7565b846001600160a01b0316866001600160a01b0316036113595760405162461bcd60e51b815260206004820152601960248201527f4472697665722063616e6e6f742062652072656365697665720000000000000060448201526064016105b7565b600280546000918261136a8361227e565b919050559050604051806101400160405280896001600160a01b03168152602001886001600160a01b03168152602001876001600160a01b03168152602001868152602001600060078111156113c2576113c2611e3d565b815260200142815260200162015180426113dc9190612212565b81526000602080830182905260408084018390526060938401839052858352600480835292819020855181546001600160a01b03199081166001600160a01b03928316178355938701516001808401805487169284169290921790915592870151600283018054909516911617909255928401516003820155608084015191810180549193909160ff19169083600781111561147a5761147a611e3d565b021790555060a0820151600582015560c0820151600682015560e0820151600782015561010080830151600890920180546101209094015160ff1690910261ff00199215159290921661ffff1990931692909217179055604080516001600160a01b0388811682526020820188905242828401529151898316928b169184917fd620475179110da1a113274d8057d24648763a447fb13997f510878e1827878c9181900360600190a4979650505050505050565b6000828152602081905260409020600101546115498161185c565b6104d383836118f8565b600083815260046020908152604080832060018101548251808401909352600d83526c1b585c9ad1195b1a5d995c9959609a1b9383019390935292916115a7916001600160a01b039091169087878761197f565b90506002600483015460ff1660078111156115c4576115c4611e3d565b146116115760405162461bcd60e51b815260206004820152601b60248201527f476f6f6473206d7573742062652073686970706564206669727374000000000060448201526064016105b7565b61161d612a3042612212565b6007830181905560048301805460ff191660031790556040805142815260208101929092526001600160a01b0383169187917fa8ce16e1f963b1bb772e036fa56080efe8df0caf31ec9bd574a5b802e480ebc79101610d88565b6116a283604051806040016040528060068152602001657265766f6b6560d01b81525087858561197f565b50600085815260046020526040902080546001600160a01b03858116911614806116db575060028101546001600160a01b038581169116145b6117325760405162461bcd60e51b815260206004820152602260248201527f4f6e6c792073656e646572206f722072656365697665722063616e207265766f6044820152616b6560f01b60648201526084016105b7565b6001600482015460ff16600781111561174d5761174d611e3d565b148061177157506002600482015460ff16600781111561176f5761176f611e3d565b145b8061179457506003600482015460ff16600781111561179257611792611e3d565b145b6117e05760405162461bcd60e51b815260206004820152601960248201527f496e76616c69642073746174757320666f72207265766f6b650000000000000060448201526064016105b7565b6004818101805460ff1916909117905560088101805461ffff191661010060ff881690810291909117600117909155604080519182524260208301526001600160a01b0386169188917f9fa2daf0824742007b93a201828e0f480a37637c3faa9d245eeec7eabef38d97910160405180910390a3505050505050565b610a248133611b85565b60006118728383610fb5565b6118f0576000838152602081815260408083206001600160a01b03861684529091529020805460ff191660011790556118a83390565b6001600160a01b0316826001600160a01b0316847f2f8788117e7eff1d82e926ec794901d17c78024a50270940304540a733656f0d60405160405180910390a45060016104a8565b5060006104a8565b60006119048383610fb5565b156118f0576000838152602081815260408083206001600160a01b0386168085529252808320805460ff1916905551339286917ff6391f5c32d9c69d2a47ea670b442974b53935d1edc7fd64eb21e047a839171b9190a45060016104a8565b61196b611bc2565b600260008051602061229883398151915255565b6000807fb6eb2507df43c5ca68a77089450d5ca9ca5022fa6204d3a6496cc614fe32542b868051906020012086600360008b6001600160a01b03166001600160a01b03168152602001908152602001600020546040516020016119fb949392919093845260208401929092526040830152606082015260800190565b60408051601f1981840301815290829052805160209182012061190160f01b918301919091527f00000000000000000000000000000000000000000000000000000000000000006022830152604282018190529150600090606201604051602081830303815290604052805190602001209050611ab085858080601f0160208091040260200160405190810160405280939291908181526020018383808284376000920191909152508593925050611bf49050565b92506001600160a01b038316611afc5760405162461bcd60e51b8152602060048201526011602482015270496e76616c6964207369676e617475726560781b60448201526064016105b7565b876001600160a01b0316836001600160a01b031614611b515760405162461bcd60e51b8152602060048201526011602482015270496e76616c6964207369676e617475726560781b60448201526064016105b7565b6001600160a01b0388166000908152600360205260408120805491611b758361227e565b9190505550505095945050505050565b611b8f8282610fb5565b611bbe5760405163e2517d3f60e01b81526001600160a01b0382166004820152602481018390526044016105b7565b5050565b60008051602061229883398151915254600203611bf257604051633ee5aeb560e01b815260040160405180910390fd5b565b600080600080611c048686611c1e565b925092509250611c148282611c6b565b5090949350505050565b60008060008351604103611c585760208401516040850151606086015160001a611c4a88828585611d24565b955095509550505050611c64565b50508151600091506002905b9250925092565b6000826003811115611c7f57611c7f611e3d565b03611c88575050565b6001826003811115611c9c57611c9c611e3d565b03611cba5760405163f645eedf60e01b815260040160405180910390fd5b6002826003811115611cce57611cce611e3d565b03611cef5760405163fce698f760e01b8152600481018290526024016105b7565b6003826003811115611d0357611d03611e3d565b03611bbe576040516335e2f38360e21b8152600481018290526024016105b7565b600080807f7fffffffffffffffffffffffffffffff5d576e7357a4501ddfe92f46681b20a0841115611d5f5750600091506003905082611de9565b604080516000808252602082018084528a905260ff891692820192909252606081018790526080810186905260019060a0016020604051602081039080840390855afa158015611db3573d6000803e3d6000fd5b5050604051601f1901519150506001600160a01b038116611ddf57506000925060019150829050611de9565b9250600091508190505b9450945094915050565b600060208284031215611e0557600080fd5b81356001600160e01b031981168114611e1d57600080fd5b9392505050565b600060208284031215611e3657600080fd5b5035919050565b634e487b7160e01b600052602160045260246000fd5b60088110611e7157634e487b7160e01b600052602160045260246000fd5b9052565b6001600160a01b038b811682528a8116602083015289166040820152606081018890526101408101611eaa6080830189611e53565b60a082019690965260c081019490945260e0840192909252151561010083015260ff166101209091015295945050505050565b80356001600160a01b0381168114611ef457600080fd5b919050565b600060208284031215611f0b57600080fd5b611e1d82611edd565b60008060408385031215611f2757600080fd5b82359150611f3760208401611edd565b90509250929050565b600080600060608486031215611f5557600080fd5b505081359360208301359350604090920135919050565b60008083601f840112611f7e57600080fd5b50813567ffffffffffffffff811115611f9657600080fd5b602083019150836020828501011115611fae57600080fd5b9250929050565b60008060008060608587031215611fcb57600080fd5b84359350611fdb60208601611edd565b9250604085013567ffffffffffffffff811115611ff757600080fd5b61200387828801611f6c565b95989497509550505050565b81516001600160a01b031681526101408101602083015161203b60208401826001600160a01b03169052565b50604083015161205660408401826001600160a01b03169052565b506060830151606083015260808301516120736080840182611e53565b5060a083015160a083015260c083015160c083015260e083015160e0830152610100808401516120a68285018215159052565b50506101209283015160ff16919092015290565b6000806000604084860312156120cf57600080fd5b83359250602084013567ffffffffffffffff8111156120ed57600080fd5b6120f986828701611f6c565b9497909650939450505050565b60008060008060008060a0878903121561211f57600080fd5b61212887611edd565b955061213660208801611edd565b945061214460408801611edd565b935060608701359250608087013567ffffffffffffffff81111561216757600080fd5b61217389828a01611f6c565b979a9699509497509295939492505050565b60008060008060006080868803121561219d57600080fd5b85359450602086013560ff811681146121b557600080fd5b93506121c360408701611edd565b9250606086013567ffffffffffffffff8111156121df57600080fd5b6121eb88828901611f6c565b969995985093965092949392505050565b634e487b7160e01b600052601160045260246000fd5b808201808211156104a8576104a86121fc565b60006020828403121561223757600080fd5b81518015158114611e1d57600080fd5b6020808252601a908201527f4465616c206e6f7420696e204372656174656420737461747573000000000000604082015260600190565b600060018201612290576122906121fc565b506001019056fe9b779b17422d0df92223018b32b4d1fa46e071723d6817e2486d003becc55f00a2646970667358221220805a1bb8a56505acecbe6c075094bbc5e331a1f1e78609e7e0058848c33251ad64736f6c63430008140033",
  "linkReferences": {},
  "deployedLinkReferences": {}
}