{
  "_format": "hh-sol-artifact-1",
  "contractName": "Escrow",
  "sourceName": "contracts/Escrow.sol",
  "abi": [
    {
      "inputs": [
        {
          "internalType": "address",
          "name": "_token",
          "type": "address"
        },
        {
          "internalType": "address",
          "name": "admin",
          "type": "address"
        },
        {
          "internalType": "address",
          "name": "relay",
          "type": "address"
        }
      ],
      "stateMutability": "nonpayable",
      "type": "constructor"
    },
    {
      "inputs": [],
      "name": "AccessControlBadConfirmation",
      "type": "error"
    },
    {
      "inputs": [
        {
          "internalType": "address",
          "name": "account",
          "type": "address"
        },
        {
          "internalType": "bytes32",
          "name": "neededRole",
          "type": "bytes32"
        }
      ],
      "name": "AccessControlUnauthorizedAccount",
      "type": "error"
    },
    {
      "inputs": [],
      "name": "ECDSAInvalidSignature",
      "type": "error"
    },
    {
      "inputs": [
        {
          "internalType": "uint256",
          "name": "length",
          "type": "uint256"
        }
      ],
      "name": "ECDSAInvalidSignatureLength",
      "type": "error"
    },
    {
      "inputs": [
        {
          "internalType": "bytes32",
          "name": "s",
          "type": "bytes32"
        }
      ],
      "name": "ECDSAInvalidSignatureS",
      "type": "error"
    },
    {
      "inputs": [],
      "name": "ReentrancyGuardReentrantCall",
      "type": "error"
    },
    {
      "anonymous": false,
      "inputs": [
        {
          "indexed": true,
          "internalType": "uint256",
          "name": "dealId",
          "type": "uint256"
        },
        {
          "indexed": false,
          "internalType": "uint256",
          "name": "timestamp",
          "type": "uint256"
        }
      ],
      "name": "DealAutoCancelled",
      "type": "event"
    },
    {
      "anonymous": false,
      "inputs": [
        {
          "indexed": true,
          "internalType": "uint256",
          "name": "dealId",
          "type": "uint256"
        },
        {
          "indexed": false,
          "internalType": "uint256",
          "name": "timestamp",
          "type": "uint256"
        }
      ],
      "name": "DealCancelled",
      "type": "event"
    },
    {
      "anonymous": false,
      "inputs": [
        {
          "indexed": true,
          "internalType": "uint256",
          "name": "dealId",
          "type": "uint256"
        },
        {
          "indexed": true,
          "internalType": "address",
          "name": "sender",
          "type": "address"
        },
        {
          "indexed": true,
          "internalType": "address",
          "name": "driver",
          "type": "address"
        },
        {
          "indexed": false,
          "internalType": "address",
          "name": "receiver",
          "type": "address"
        },
        {
          "indexed": false,
          "internalType": "uint256",
          "name": "amount",
          "type": "uint256"
        },
        {
          "indexed": false,
          "internalType": "uint256",
          "name": "createdAt",
          "type": "uint256"
        }
      ],
      "name": "DealCreated",
      "type": "event"
    },
    {
      "anonymous": false,
      "inputs": [
        {
          "indexed": true,
          "internalType": "uint256",
          "name": "dealId",
          "type": "uint256"
        },
        {
          "indexed": true,
          "internalType": "address",
          "name": "revokedBy",
          "type": "address"
        },
        {
          "indexed": false,
          "internalType": "uint8",
          "name": "reasonCode",
          "type": "uint8"
        },
        {
          "indexed": false,
          "internalType": "uint256",
          "name": "timestamp",
          "type": "uint256"
        }
      ],
      "name": "DealRevoked",
      "type": "event"
    },
    {
      "anonymous": false,
      "inputs": [
        {
          "indexed": true,
          "internalType": "uint256",
          "name": "dealId",
          "type": "uint256"
        },
        {
          "indexed": true,
          "internalType": "address",
          "name": "admin",
          "type": "address"
        },
        {
          "indexed": false,
          "internalType": "uint256",
          "name": "amountToSender",
          "type": "uint256"
        },
        {
          "indexed": false,
          "internalType": "uint256",
          "name": "amountToReceiver",
          "type": "uint256"
        },
        {
          "indexed": false,
          "internalType": "uint256",
          "name": "timestamp",
          "type": "uint256"
        }
      ],
      "name": "DisputeResolved",
      "type": "event"
    },
    {
      "anonymous": false,
      "inputs": [
        {
          "indexed": true,
          "internalType": "uint256",
          "name": "dealId",
          "type": "uint256"
        },
        {
          "indexed": true,
          "internalType": "address",
          "name": "receiver",
          "type": "address"
        },
        {
          "indexed": false,
          "internalType": "uint256",
          "name": "amount",
          "type": "uint256"
        },
        {
          "indexed": false,
          "internalType": "uint256",
          "name": "timestamp",
          "type": "uint256"
        }
      ],
      "name": "FundsLocked",
      "type": "event"
    },
    {
      "anonymous": false,
      "inputs": [
        {
          "indexed": true,
          "internalType": "uint256",
          "name": "dealId",
          "type": "uint256"
        },
        {
          "indexed": true,
          "internalType": "address",
          "name": "sender",
          "type": "address"
        },
        {
          "indexed": false,
          "internalType": "uint256",
          "name": "amount",
          "type": "uint256"
        },
        {
          "indexed": false,
          "internalType": "uint256",
          "name": "timestamp",
          "type": "uint256"
        }
      ],
      "name": "FundsReleased",
      "type": "event"
    },
    {
      "anonymous": false,
      "inputs": [
        {
          "indexed": true,
          "internalType": "uint256",
          "name": "dealId",
          "type": "uint256"
        },
        {
          "indexed": true,
          "internalType": "address",
          "name": "driver",
          "type": "address"
        },
        {
          "indexed": false,
          "internalType": "uint256",
          "name": "timestamp",
          "type": "uint256"
        },
        {
          "indexed": false,
          "internalType": "uint256",
          "name": "payoutReadyTime",
          "type": "uint256"
        }
      ],
      "name": "MarkedDelivered",
      "type": "event"
    },
    {
      "anonymous": false,
      "inputs": [
        {
          "indexed": true,
          "internalType": "uint256",
          "name": "dealId",
          "type": "uint256"
        },
        {
          "indexed": true,
          "internalType": "address",
          "name": "sender",
          "type": "address"
        },
        {
          "indexed": false,
          "internalType": "uint256",
          "name": "timestamp",
          "type": "uint256"
        }
      ],
      "name": "MarkedShipped",
      "type": "event"
    },
    {
      "anonymous": false,
      "inputs": [
        {
          "indexed": true,
          "internalType": "bytes32",
          "name": "role",
          "type": "bytes32"
        },
        {
          "indexed": true,
          "internalType": "bytes32",
          "name": "previousAdminRole",
          "type": "bytes32"
        },
        {
          "indexed": true,
          "internalType": "bytes32",
          "name": "newAdminRole",
          "type": "bytes32"
        }
      ],
      "name": "RoleAdminChanged",
      "type": "event"
    },
    {
      "anonymous": false,
      "inputs": [
        {
          "indexed": true,
          "internalType": "bytes32",
          "name": "role",
          "type": "bytes32"
        },
        {
          "indexed": true,
          "internalType": "address",
          "name": "account",
          "type": "address"
        },
        {
          "indexed": true,
          "internalType": "address",
          "name": "sender",
          "type": "address"
        }
      ],
      "name": "RoleGranted",
      "type": "event"
    },
    {
      "anonymous": false,
      "inputs": [
        {
          "indexed": true,
          "internalType": "bytes32",
          "name": "role",
          "type": "bytes32"
        },
        {
          "indexed": true,
          "internalType": "address",
          "name": "account",
          "type": "address"
        },
        {
          "indexed": true,
          "internalType": "address",
          "name": "sender",
          "type": "address"
        }
      ],
      "name": "RoleRevoked",
      "type": "event"
    },
    {
      "inputs": [],
      "name": "ADMIN_ROLE",
      "outputs": [
        {
          "internalType": "bytes32",
          "name": "",
          "type": "bytes32"
        }
      ],
      "stateMutability": "view",
      "type": "function"
    },
    {
      "inputs": [],
      "name": "DEFAULT_ADMIN_ROLE",
      "outputs": [
        {
          "internalType": "bytes32",
          "name": "",
          "type": "bytes32"
        }
      ],
      "stateMutability": "view",
      "type": "function"
    },
    {
      "inputs": [],
      "name": "DISPUTE_WINDOW",
      "outputs": [
        {
          "internalType": "uint256",
          "name": "",
          "type": "uint256"
        }
      ],
      "stateMutability": "view",
      "type": "function"
    },
    {
      "inputs": [],
      "name": "DOMAIN_SEPARATOR",
      "outputs": [
        {
          "internalType": "bytes32",
          "name": "",
          "type": "bytes32"
        }
      ],
      "stateMutability": "view",
      "type": "function"
    },
    {
      "inputs": [],
      "name": "FUND_LOCK_WINDOW",
      "outputs": [
        {
          "internalType": "uint256",
          "name": "",
          "type": "uint256"
        }
      ],
      "stateMutability": "view",
      "type": "function"
    },
    {
      "inputs": [],
      "name": "RELAY_ROLE",
      "outputs": [
        {
          "internalType": "bytes32",
          "name": "",
          "type": "bytes32"
        }
      ],
      "stateMutability": "view",
      "type": "function"
    },
    {
      "inputs": [
        {
          "internalType": "uint256",
          "name": "dealId",
          "type": "uint256"
        }
      ],
      "name": "autoCancelIfUnlocked",
      "outputs": [],
      "stateMutability": "nonpayable",
      "type": "function"
    },
    {
      "inputs": [
        {
          "internalType": "uint256",
          "name": "dealId",
          "type": "uint256"
        },
        {
          "internalType": "address",
          "name": "caller",
          "type": "address"
        },
        {
          "internalType": "bytes",
          "name": "signature",
          "type": "bytes"
        }
      ],
      "name": "cancelBeforeLock",
      "outputs": [],
      "stateMutability": "nonpayable",
      "type": "function"
    },
    {
      "inputs": [
        {
          "internalType": "address",
          "name": "sender",
          "type": "address"
        },
        {
          "internalType": "address",
          "name": "driver",
          "type": "address"
        },
        {
          "internalType": "address",
          "name": "receiver",
          "type": "address"
        },
        {
          "internalType": "uint256",
          "name": "amount",
          "type": "uint256"
        },
        {
          "internalType": "bytes",
          "name": "signature",
          "type": "bytes"
        }
      ],
      "name": "createDeal",
      "outputs": [
        {
          "internalType": "uint256",
          "name": "",
          "type": "uint256"
        }
      ],
      "stateMutability": "nonpayable",
      "type": "function"
    },
    {
      "inputs": [
        {
          "internalType": "uint256",
          "name": "",
          "type": "uint256"
        }
      ],
      "name": "deals",
      "outputs": [
        {
          "internalType": "address",
          "name": "sender",
          "type": "address"
        },
        {
          "internalType": "address",
          "name": "driver",
          "type": "address"
        },
        {
          "internalType": "address",
          "name": "receiver",
          "type": "address"
        },
        {
          "internalType": "uint256",
          "name": "amount",
          "type": "uint256"
        },
        {
          "internalType": "enum Escrow.Status",
          "name": "status",
          "type": "uint8"
        },
        {
          "internalType": "uint256",
          "name": "createdAt",
          "type": "uint256"
        },
        {
          "internalType": "uint256",
          "name": "fundLockDeadline",
          "type": "uint256"
        },
        {
          "internalType": "uint256",
          "name": "payoutReadyTime",
          "type": "uint256"
        },
        {
          "internalType": "bool",
          "name": "isDisputed",
          "type": "bool"
        },
        {
          "internalType": "uint8",
          "name": "disputeReasonCode",
          "type": "uint8"
        }
      ],
      "stateMutability": "view",
      "type": "function"
    },
    {
      "inputs": [
        {
          "internalType": "uint256",
          "name": "dealId",
          "type": "uint256"
        }
      ],
      "name": "getDeal",
      "outputs": [
        {
          "components": [
            {
              "internalType": "address",
              "name": "sender",
              "type": "address"
            },
            {
              "internalType": "address",
              "name": "driver",
              "type": "address"
            },
            {
              "internalType": "address",
              "name": "receiver",
              "type": "address"
            },
            {
              "internalType": "uint256",
              "name": "amount",
              "type": "uint256"
            },
            {
              "internalType": "enum Escrow.Status",
              "name": "status",
              "type": "uint8"
            },
            {
              "internalType": "uint256",
              "name": "createdAt",
              "type": "uint256"
            },
            {
              "internalType": "uint256",
              "name": "fundLockDeadline",
              "type": "uint256"
            },
            {
              "internalType": "uint256",
              "name": "payoutReadyTime",
              "type": "uint256"
            },
            {
              "internalType": "bool",
              "name": "isDisputed",
              "type": "bool"
            },
            {
              "internalType": "uint8",
              "name": "disputeReasonCode",
              "type": "uint8"
            }
          ],
          "internalType": "struct Escrow.Deal",
          "name": "",
          "type": "tuple"
        }
      ],
      "stateMutability": "view",
      "type": "function"
    },
    {
      "inputs": [
        {
          "internalType": "address",
          "name": "user",
          "type": "address"
        }
      ],
      "name": "getNonce",
      "outputs": [
        {
          "internalType": "uint256",
          "name": "",
          "type": "uint256"
        }
      ],
      "stateMutability": "view",
      "type": "function"
    },
    {
      "inputs": [
        {
          "internalType": "bytes32",
          "name": "role",
          "type": "bytes32"
        }
      ],
      "name": "getRoleAdmin",
      "outputs": [
        {
          "internalType": "bytes32",
          "name": "",
          "type": "bytes32"
        }
      ],
      "stateMutability": "view",
      "type": "function"
    },
    {
      "inputs": [
        {
          "internalType": "bytes32",
          "name": "role",
          "type": "bytes32"
        },
        {
          "internalType": "address",
          "name": "account",
          "type": "address"
        }
      ],
      "name": "grantRole",
      "outputs": [],
      "stateMutability": "nonpayable",
      "type": "function"
    },
    {
      "inputs": [
        {
          "internalType": "bytes32",
          "name": "role",
          "type": "bytes32"
        },
        {
          "internalType": "address",
          "name": "account",
          "type": "address"
        }
      ],
      "name": "hasRole",
      "outputs": [
        {
          "internalType": "bool",
          "name": "",
          "type": "bool"
        }
      ],
      "stateMutability": "view",
      "type": "function"
    },
    {
      "inputs": [
        {
          "internalType": "uint256",
          "name": "dealId",
          "type": "uint256"
        },
        {
          "internalType": "bytes",
          "name": "signature",
          "type": "bytes"
        }
      ],
      "name": "lockFunds",
      "outputs": [],
      "stateMutability": "nonpayable",
      "type": "function"
    },
    {
      "inputs": [
        {
          "internalType": "uint256",
          "name": "dealId",
          "type": "uint256"
        },
        {
          "internalType": "bytes",
          "name": "signature",
          "type": "bytes"
        }
      ],
      "name": "markDelivered",
      "outputs": [],
      "stateMutability": "nonpayable",
      "type": "function"
    },
    {
      "inputs": [
        {
          "internalType": "uint256",
          "name": "dealId",
          "type": "uint256"
        },
        {
          "internalType": "bytes",
          "name": "signature",
          "type": "bytes"
        }
      ],
      "name": "markShipped",
      "outputs": [],
      "stateMutability": "nonpayable",
      "type": "function"
    },
    {
      "inputs": [],
      "name": "nextDealId",
      "outputs": [
        {
          "internalType": "uint256",
          "name": "",
          "type": "uint256"
        }
      ],
      "stateMutability": "view",
      "type": "function"
    },
    {
      "inputs": [
        {
          "internalType": "address",
          "name": "",
          "type": "address"
        }
      ],
      "name": "nonces",
      "outputs": [
        {
          "internalType": "uint256",
          "name": "",
          "type": "uint256"
        }
      ],
      "stateMutability": "view",
      "type": "function"
    },
    {
      "inputs": [
        {
          "internalType": "uint256",
          "name": "dealId",
          "type": "uint256"
        }
      ],
      "name": "releaseFunds",
      "outputs": [],
      "stateMutability": "nonpayable",
      "type": "function"
    },
    {
      "inputs": [
        {
          "internalType": "bytes32",
          "name": "role",
          "type": "bytes32"
        },
        {
          "internalType": "address",
          "name": "callerConfirmation",
          "type": "address"
        }
      ],
      "name": "renounceRole",
      "outputs": [],
      "stateMutability": "nonpayable",
      "type": "function"
    },
    {
      "inputs": [
        {
          "internalType": "uint256",
          "name": "dealId",
          "type": "uint256"
        },
        {
          "internalType": "uint256",
          "name": "amountToSender",
          "type": "uint256"
        },
        {
          "internalType": "uint256",
          "name": "amountToReceiver",
          "type": "uint256"
        }
      ],
      "name": "resolveDispute",
      "outputs": [],
      "stateMutability": "nonpayable",
      "type": "function"
    },
    {
      "inputs": [
        {
          "internalType": "uint256",
          "name": "dealId",
          "type": "uint256"
        },
        {
          "internalType": "uint8",
          "name": "reasonCode",
          "type": "uint8"
        },
        {
          "internalType": "address",
          "name": "caller",
          "type": "address"
        },
        {
          "internalType": "bytes",
          "name": "signature",
          "type": "bytes"
        }
      ],
      "name": "revoke",
      "outputs": [],
      "stateMutability": "nonpayable",
      "type": "function"
    },
    {
      "inputs": [
        {
          "internalType": "bytes32",
          "name": "role",
          "type": "bytes32"
        },
        {
          "internalType": "address",
          "name": "account",
          "type": "address"
        }
      ],
      "name": "revokeRole",
      "outputs": [],
      "stateMutability": "nonpayable",
      "type": "function"
    },
    {
      "inputs": [
        {
          "internalType": "bytes4",
          "name": "interfaceId",
          "type": "bytes4"
        }
      ],
      "name": "supportsInterface",
      "outputs": [
        {
          "internalType": "bool",
          "name": "",
          "type": "bool"
        }
      ],
      "stateMutability": "view",
      "type": "function"
    },
    {
      "inputs": [],
      "name": "token",
      "outputs": [
        {
          "internalType": "contract eRWF",
          "name": "",
          "type": "address"
        }
      ],
      "stateMutability": "view",
      "type": "function"
    }
  ],
  "bytecode": "0x60a060405234801561000f575f5ffd5b506040516126d93803806126d983398101604081905261002e9161037d565b60017f9b779b17422d0df92223018b32b4d1fa46e071723d6817e2486d003becc55f00556001600160a01b0383166100ad5760405162461bcd60e51b815260206004820152601560248201527f496e76616c696420746f6b656e2061646472657373000000000000000000000060448201526064015b60405180910390fd5b6001600160a01b0382166101035760405162461bcd60e51b815260206004820152601560248201527f496e76616c69642061646d696e2061646472657373000000000000000000000060448201526064016100a4565b6001600160a01b0381166101595760405162461bcd60e51b815260206004820152601560248201527f496e76616c69642072656c61792061646472657373000000000000000000000060448201526064016100a4565b600180546001600160a01b0319166001600160a01b03851617905561017e5f836102b9565b506101a97fa49807205ce4d355092ef5a8a18f56e8913cf4a201fbe287825b095693c21775836102b9565b506101d47f077a1d526a4ce8a773632ab13b4fbbf1fcc954c3dab26cd27ea0e2a6750da5d7826102b9565b50604080518082018252600e81526d115cd8dc9bddd0dbdb9d1c9858dd60921b6020918201528151808301835260018152603160f81b9082015281517f8b73c3c69bb8fe3d512ecc4cf759cc79239f7b179b0ffacaa9a75d522b39400f918101919091527f6813732d6dc66510b087d48aaad6380f9bab2ffe645d59391b3426fdfb03e069918101919091527fc89efdaa54c0f20c7adf612882df0950f5a951637e0307cdcb4c672f298b8bc660608201524660808201523060a082015260c00160408051601f198184030181529190528051602090910120608052506103bd915050565b5f828152602081815260408083206001600160a01b038516845290915281205460ff16610359575f838152602081815260408083206001600160a01b03861684529091529020805460ff191660011790556103113390565b6001600160a01b0316826001600160a01b0316847f2f8788117e7eff1d82e926ec794901d17c78024a50270940304540a733656f0d60405160405180910390a450600161035c565b505f5b92915050565b80516001600160a01b0381168114610378575f5ffd5b919050565b5f5f5f6060848603121561038f575f5ffd5b61039884610362565b92506103a660208501610362565b91506103b460408501610362565b90509250925092565b6080516122fd6103dc5f395f81816102e80152611a4801526122fd5ff3fe608060405234801561000f575f5ffd5b50600436106101a1575f3560e01c806378a31157116100f3578063a217fddf11610093578063d81307f01161006e578063d81307f01461043e578063f585dc5714610451578063f7d157301461045a578063fc0c546a1461046d575f5ffd5b8063a217fddf14610411578063bd11a92514610418578063d547741f1461042b575f5ffd5b806385a715f1116100ce57806385a715f1146103c55780638863b3a2146103d857806391d14854146103eb57806399768ddf146103fe575f5ffd5b806378a31157146103735780637ecebe001461038657806382fd5bac146103a5575f5ffd5b80632f2ff15d1161015e5780633fabe74f116101395780633fabe74f1461031d5780634d68282f146103305780634d9879e31461034357806375b238fc1461034c575f5ffd5b80632f2ff15d146102ce5780633644e515146102e357806336568abe1461030a575f5ffd5b806301ffc9a7146101a557806303988f84146101cd5780630442182314610258578063095cb0631461027a578063248a9ca3146102845780632d0335ab146102a6575b5f5ffd5b6101b86101b3366004611e06565b610498565b60405190151581526020015b60405180910390f35b6102426101db366004611e34565b600460208190525f91825260409091208054600182015460028301546003840154948401546005850154600686015460078701546008909701546001600160a01b039687169895871697949096169560ff938416949293919291818116916101009004168a565b6040516101c49a99989796959493929190611e7f565b61026c5f5160206122885f395f51905f5281565b6040519081526020016101c4565b61026c6201518081565b61026c610292366004611e34565b5f9081526020819052604090206001015490565b61026c6102b4366004611f02565b6001600160a01b03165f9081526003602052604090205490565b6102e16102dc366004611f1b565b6104ce565b005b61026c7f000000000000000000000000000000000000000000000000000000000000000081565b6102e1610318366004611f1b565b6104f8565b6102e161032b366004611f45565b610530565b6102e161033e366004611e34565b610834565b61026c60025481565b61026c7fa49807205ce4d355092ef5a8a18f56e8913cf4a201fbe287825b095693c2177581565b6102e1610381366004611fb3565b610a39565b61026c610394366004611f02565b60036020525f908152604090205481565b6103b86103b3366004611e34565b610b97565b6040516101c49190612009565b6102e16103d33660046120bf565b610cad565b6102e16103e63660046120bf565b610dd4565b6101b86103f9366004611f1b565b610fa6565b6102e161040c366004611e34565b610fce565b61026c5f81565b61026c610426366004612107565b6110ad565b6102e1610439366004611f1b565b611530565b6102e161044c3660046120bf565b611554565b61026c612a3081565b6102e1610468366004612181565b61168e565b600154610480906001600160a01b031681565b6040516001600160a01b0390911681526020016101c4565b5f6001600160e01b03198216637965db0b60e01b14806104c857506301ffc9a760e01b6001600160e01b03198316145b92915050565b5f828152602081905260409020600101546104e88161188a565b6104f28383611894565b50505050565b6001600160a01b03811633146105215760405163334bd91960e11b815260040160405180910390fd5b61052b8282611923565b505050565b7fa49807205ce4d355092ef5a8a18f56e8913cf4a201fbe287825b095693c2177561055a8161188a565b61056261198c565b5f84815260046020819052604090912090600482015460ff16600781111561058c5761058c611e4b565b146105de5760405162461bcd60e51b815260206004820152601b60248201527f4465616c206e6f7420696e20446973707574656420737461747573000000000060448201526064015b60405180910390fd5b60038101546105ed8486612206565b1461063a5760405162461bcd60e51b815260206004820152601f60248201527f416d6f756e7473206d7573742073756d20746f206465616c20616d6f756e740060448201526064016105d5565b60048101805460ff19166007179055831561071057600154815460405163a9059cbb60e01b81526001600160a01b0391821660048201526024810187905291169063a9059cbb906044016020604051808303815f875af11580156106a0573d5f5f3e3d5ffd5b505050506040513d601f19601f820116820180604052508101906106c49190612219565b6107105760405162461bcd60e51b815260206004820152601960248201527f5472616e7366657220746f2073656e646572206661696c65640000000000000060448201526064016105d5565b82156107da57600154600282015460405163a9059cbb60e01b81526001600160a01b0391821660048201526024810186905291169063a9059cbb906044016020604051808303815f875af115801561076a573d5f5f3e3d5ffd5b505050506040513d601f19601f8201168201806040525081019061078e9190612219565b6107da5760405162461bcd60e51b815260206004820152601b60248201527f5472616e7366657220746f207265636569766572206661696c6564000000000060448201526064016105d5565b604080518581526020810185905242818301529051339187917ff2b306c6988ab9d9ba081e4ded2e7c9fbc64fc27639527f2b7bf0bb19194ea929181900360600190a3506104f260015f5160206122a85f395f51905f5255565b61083c61198c565b5f8181526004602052604090206003600482015460ff16600781111561086457610864611e4b565b146108b15760405162461bcd60e51b815260206004820152601c60248201527f4465616c206e6f7420696e2044656c697665726564207374617475730000000060448201526064016105d5565b80600701544210156109055760405162461bcd60e51b815260206004820152601a60248201527f446973707574652077696e646f77206e6f74206578706972656400000000000060448201526064016105d5565b6004818101805460ff191660051790556001548254600384015460405163a9059cbb60e01b81526001600160a01b03928316948101949094526024840152169063a9059cbb906044016020604051808303815f875af115801561096a573d5f5f3e3d5ffd5b505050506040513d601f19601f8201168201806040525081019061098e9190612219565b6109d25760405162461bcd60e51b8152602060048201526015602482015274151bdad95b881d1c985b9cd9995c8819985a5b1959605a1b60448201526064016105d5565b80546003820154604080519182524260208301526001600160a01b039092169184917f93e901cc5aea20ea9655887d9290a3215a5b3999c024812f4e4b749f7534349c910160405180910390a350610a3660015f5160206122a85f395f51905f5255565b50565b5f5160206122885f395f51905f52610a508161188a565b610a85846040518060400160405280601081526020016f63616e63656c4265666f72654c6f636b60801b8152508786866119a7565b505f85815260046020526040902080546001600160a01b0386811691161480610abd575060028101546001600160a01b038681169116145b610b145760405162461bcd60e51b815260206004820152602260248201527f4f6e6c792073656e646572206f722072656365697665722063616e2063616e63604482015261195b60f21b60648201526084016105d5565b5f600482015460ff166007811115610b2e57610b2e611e4b565b14610b4b5760405162461bcd60e51b81526004016105d590612238565b60048101805460ff1916600617905560405142815286907faf3855a84ba7ae9060a15c82675adab08caab3cb5ba10b102c3f0dd8279da0219060200160405180910390a2505050505050565b60408051610140810182525f80825260208201819052918101829052606081018290526080810182905260a0810182905260c0810182905260e0810182905261010081018290526101208101919091525f8281526004602081815260409283902083516101408101855281546001600160a01b03908116825260018301548116938201939093526002820154909216938201939093526003830154606082015290820154909190608083019060ff166007811115610c5757610c57611e4b565b6007811115610c6857610c68611e4b565b815260058201546020820152600682015460408201526007820154606082015260089091015460ff808216151560808401526101009091041660a09091015292915050565b5f5160206122885f395f51905f52610cc48161188a565b5f84815260046020908152604080832080548251808401909352600b83526a1b585c9ad4da1a5c1c195960aa1b938301939093529291610d12916001600160a01b03909116908888886119a7565b90506001600483015460ff166007811115610d2f57610d2f611e4b565b14610d7c5760405162461bcd60e51b815260206004820152601a60248201527f46756e6473206d757374206265206c6f636b656420666972737400000000000060448201526064016105d5565b60048201805460ff191660021790556040514281526001600160a01b0382169087907ff07eccd3528f7adce23d7a377217386973f2290f41ba8dd40fc69f8087850645906020015b60405180910390a3505050505050565b5f5160206122885f395f51905f52610deb8161188a565b610df361198c565b5f8481526004602090815260408083206002810154825180840190935260098352686c6f636b46756e647360b81b938301939093529291610e42916001600160a01b03909116908888886119a7565b90505f600483015460ff166007811115610e5e57610e5e611e4b565b14610e7b5760405162461bcd60e51b81526004016105d590612238565b8160060154421115610ecf5760405162461bcd60e51b815260206004820152601960248201527f46756e64206c6f636b20646561646c696e65207061737365640000000000000060448201526064016105d5565b600154600383015460405163259ee2f360e11b81526001600160a01b0384811660048301526024820192909252911690634b3dc5e6906044015f604051808303815f87803b158015610f1f575f5ffd5b505af1158015610f31573d5f5f3e3d5ffd5b5050505060048201805460ff191660011790556003820154604080519182524260208301526001600160a01b0383169188917fab4fc4352018381da6bb7715e4cdc58516ae4fcf7dbbc4c212bbcfbcc8dcdf88910160405180910390a350506104f260015f5160206122a85f395f51905f5255565b5f918252602082815260408084206001600160a01b0393909316845291905290205460ff1690565b5f81815260046020526040812090600482015460ff166007811115610ff557610ff5611e4b565b146110125760405162461bcd60e51b81526004016105d590612238565b806006015442116110655760405162461bcd60e51b815260206004820152601760248201527f446561646c696e65206e6f74207061737365642079657400000000000000000060448201526064016105d5565b60048101805460ff1916600617905560405142815282907fe303c7f81e59541073692fe5ee336f986a31fba23ed11456d7f70034ef3ac4cc9060200160405180910390a25050565b5f5f5160206122885f395f51905f526110c58161188a565b6001600160a01b0388166111145760405162461bcd60e51b8152602060048201526016602482015275496e76616c69642073656e646572206164647265737360501b60448201526064016105d5565b611145886040518060400160405280600a81526020016918dc99585d195119585b60b21b81525060025487876119a7565b506001600160a01b0387166111955760405162461bcd60e51b8152602060048201526016602482015275496e76616c696420647269766572206164647265737360501b60448201526064016105d5565b6001600160a01b0386166111eb5760405162461bcd60e51b815260206004820152601860248201527f496e76616c69642072656365697665722061646472657373000000000000000060448201526064016105d5565b5f851161123a5760405162461bcd60e51b815260206004820152601760248201527f416d6f756e74206d75737420626520706f73697469766500000000000000000060448201526064016105d5565b866001600160a01b0316886001600160a01b03160361129b5760405162461bcd60e51b815260206004820152601760248201527f53656e6465722063616e6e6f742062652064726976657200000000000000000060448201526064016105d5565b856001600160a01b0316886001600160a01b0316036112fc5760405162461bcd60e51b815260206004820152601960248201527f53656e6465722063616e6e6f742062652072656365697665720000000000000060448201526064016105d5565b856001600160a01b0316876001600160a01b03160361135d5760405162461bcd60e51b815260206004820152601960248201527f4472697665722063616e6e6f742062652072656365697665720000000000000060448201526064016105d5565b600280545f918261136d8361226f565b9190505590506040518061014001604052808a6001600160a01b03168152602001896001600160a01b03168152602001886001600160a01b031681526020018781526020015f60078111156113c4576113c4611e4b565b815260200142815260200162015180426113de9190612206565b81525f602080830182905260408084018390526060938401839052858352600480835292819020855181546001600160a01b03199081166001600160a01b03928316178355938701516001808401805487169284169290921790915592870151600283018054909516911617909255928401516003820155608084015191810180549193909160ff19169083600781111561147b5761147b611e4b565b021790555060a0820151600582015560c0820151600682015560e0820151600782015561010080830151600890920180546101209094015160ff1690910261ff00199215159290921661ffff1990931692909217179055604080516001600160a01b03898116825260208201899052428284015291518a8316928c169184917fd620475179110da1a113274d8057d24648763a447fb13997f510878e1827878c9181900360600190a498975050505050505050565b5f8281526020819052604090206001015461154a8161188a565b6104f28383611923565b5f5160206122885f395f51905f5261156b8161188a565b5f84815260046020908152604080832060018101548251808401909352600d83526c1b585c9ad1195b1a5d995c9959609a1b9383019390935292916115be916001600160a01b03909116908888886119a7565b90506002600483015460ff1660078111156115db576115db611e4b565b146116285760405162461bcd60e51b815260206004820152601b60248201527f476f6f6473206d7573742062652073686970706564206669727374000000000060448201526064016105d5565b611634612a3042612206565b6007830181905560048301805460ff191660031790556040805142815260208101929092526001600160a01b0383169188917fa8ce16e1f963b1bb772e036fa56080efe8df0caf31ec9bd574a5b802e480ebc79101610dc4565b5f5160206122885f395f51905f526116a58161188a565b6116d084604051806040016040528060068152602001657265766f6b6560d01b8152508886866119a7565b505f86815260046020526040902080546001600160a01b0386811691161480611708575060028101546001600160a01b038681169116145b61175f5760405162461bcd60e51b815260206004820152602260248201527f4f6e6c792073656e646572206f722072656365697665722063616e207265766f6044820152616b6560f01b60648201526084016105d5565b6001600482015460ff16600781111561177a5761177a611e4b565b148061179e57506002600482015460ff16600781111561179c5761179c611e4b565b145b806117c157506003600482015460ff1660078111156117bf576117bf611e4b565b145b61180d5760405162461bcd60e51b815260206004820152601960248201527f496e76616c69642073746174757320666f72207265766f6b650000000000000060448201526064016105d5565b6004818101805460ff1916909117905560088101805461ffff191661010060ff891690810291909117600117909155604080519182524260208301526001600160a01b0387169189917f9fa2daf0824742007b93a201828e0f480a37637c3faa9d245eeec7eabef38d97910160405180910390a350505050505050565b610a368133611ba7565b5f61189f8383610fa6565b61191c575f838152602081815260408083206001600160a01b03861684529091529020805460ff191660011790556118d43390565b6001600160a01b0316826001600160a01b0316847f2f8788117e7eff1d82e926ec794901d17c78024a50270940304540a733656f0d60405160405180910390a45060016104c8565b505f6104c8565b5f61192e8383610fa6565b1561191c575f838152602081815260408083206001600160a01b0386168085529252808320805460ff1916905551339286917ff6391f5c32d9c69d2a47ea670b442974b53935d1edc7fd64eb21e047a839171b9190a45060016104c8565b611994611be4565b60025f5160206122a85f395f51905f5255565b5f5f7fb6eb2507df43c5ca68a77089450d5ca9ca5022fa6204d3a6496cc614fe32542b86805190602001208660035f8b6001600160a01b03166001600160a01b031681526020019081526020015f2054604051602001611a20949392919093845260208401929092526040830152606082015260800190565b60408051601f1981840301815290829052805160209182012061190160f01b918301919091527f000000000000000000000000000000000000000000000000000000000000000060228301526042820181905291505f90606201604051602081830303815290604052805190602001209050611ad385858080601f0160208091040260200160405190810160405280939291908181526020018383808284375f920191909152508593925050611c159050565b92506001600160a01b038316611b1f5760405162461bcd60e51b8152602060048201526011602482015270496e76616c6964207369676e617475726560781b60448201526064016105d5565b876001600160a01b0316836001600160a01b031614611b745760405162461bcd60e51b8152602060048201526011602482015270496e76616c6964207369676e617475726560781b60448201526064016105d5565b6001600160a01b0388165f908152600360205260408120805491611b978361226f565b9190505550505095945050505050565b611bb18282610fa6565b611be05760405163e2517d3f60e01b81526001600160a01b0382166004820152602481018390526044016105d5565b5050565b5f5160206122a85f395f51905f5254600203611c1357604051633ee5aeb560e01b815260040160405180910390fd5b565b5f5f5f5f611c238686611c3d565b925092509250611c338282611c86565b5090949350505050565b5f5f5f8351604103611c74576020840151604085015160608601515f1a611c6688828585611d3e565b955095509550505050611c7f565b505081515f91506002905b9250925092565b5f826003811115611c9957611c99611e4b565b03611ca2575050565b6001826003811115611cb657611cb6611e4b565b03611cd45760405163f645eedf60e01b815260040160405180910390fd5b6002826003811115611ce857611ce8611e4b565b03611d095760405163fce698f760e01b8152600481018290526024016105d5565b6003826003811115611d1d57611d1d611e4b565b03611be0576040516335e2f38360e21b8152600481018290526024016105d5565b5f80807f7fffffffffffffffffffffffffffffff5d576e7357a4501ddfe92f46681b20a0841115611d7757505f91506003905082611dfc565b604080515f808252602082018084528a905260ff891692820192909252606081018790526080810186905260019060a0016020604051602081039080840390855afa158015611dc8573d5f5f3e3d5ffd5b5050604051601f1901519150506001600160a01b038116611df357505f925060019150829050611dfc565b92505f91508190505b9450945094915050565b5f60208284031215611e16575f5ffd5b81356001600160e01b031981168114611e2d575f5ffd5b9392505050565b5f60208284031215611e44575f5ffd5b5035919050565b634e487b7160e01b5f52602160045260245ffd5b60088110611e7b57634e487b7160e01b5f52602160045260245ffd5b9052565b6001600160a01b038b811682528a8116602083015289166040820152606081018890526101408101611eb46080830189611e5f565b60a082019690965260c081019490945260e0840192909252151561010083015260ff166101209091015295945050505050565b80356001600160a01b0381168114611efd575f5ffd5b919050565b5f60208284031215611f12575f5ffd5b611e2d82611ee7565b5f5f60408385031215611f2c575f5ffd5b82359150611f3c60208401611ee7565b90509250929050565b5f5f5f60608486031215611f57575f5ffd5b505081359360208301359350604090920135919050565b5f5f83601f840112611f7e575f5ffd5b50813567ffffffffffffffff811115611f95575f5ffd5b602083019150836020828501011115611fac575f5ffd5b9250929050565b5f5f5f5f60608587031215611fc6575f5ffd5b84359350611fd660208601611ee7565b9250604085013567ffffffffffffffff811115611ff1575f5ffd5b611ffd87828801611f6e565b95989497509550505050565b81516001600160a01b031681526101408101602083015161203560208401826001600160a01b03169052565b50604083015161205060408401826001600160a01b03169052565b5060608301516060830152608083015161206d6080840182611e5f565b5060a083015160a083015260c083015160c083015260e083015160e08301526101008301516120a161010084018215159052565b506101208301516120b861012084018260ff169052565b5092915050565b5f5f5f604084860312156120d1575f5ffd5b83359250602084013567ffffffffffffffff8111156120ee575f5ffd5b6120fa86828701611f6e565b9497909650939450505050565b5f5f5f5f5f5f60a0878903121561211c575f5ffd5b61212587611ee7565b955061213360208801611ee7565b945061214160408801611ee7565b935060608701359250608087013567ffffffffffffffff811115612163575f5ffd5b61216f89828a01611f6e565b979a9699509497509295939492505050565b5f5f5f5f5f60808688031215612195575f5ffd5b85359450602086013560ff811681146121ac575f5ffd5b93506121ba60408701611ee7565b9250606086013567ffffffffffffffff8111156121d5575f5ffd5b6121e188828901611f6e565b969995985093965092949392505050565b634e487b7160e01b5f52601160045260245ffd5b808201808211156104c8576104c86121f2565b5f60208284031215612229575f5ffd5b81518015158114611e2d575f5ffd5b6020808252601a908201527f4465616c206e6f7420696e204372656174656420737461747573000000000000604082015260600190565b5f60018201612280576122806121f2565b506001019056fe077a1d526a4ce8a773632ab13b4fbbf1fcc954c3dab26cd27ea0e2a6750da5d79b779b17422d0df92223018b32b4d1fa46e071723d6817e2486d003becc55f00a2646970667358221220707b4b642b8ede8308819152e111e44eb067f7fa2212841d1d284cf139c2eca064736f6c634300081c0033",
  "linkReferences": {},
  "deployedLinkReferences": {}
}